:100000000C947C020C9499020C9499020C94990221
:100010000C9499020C9499020C9499020C949902F4
:100020000C9499020C9499020C94BD150C94F8153B
:100030000C9499020C9499020C9499020C949902D4
:100040000C9499020C9499020C9499020C949902C4
:100050000C9499020C9499020C9499020C94E80265
:100060000C9499020C9499020C9499020C949902A4
:100070000C9499020C9499020C9499020C94990294
:100080000C9499020C9499020C9499020C942304F8
:100090000C9499020C9499020C9499020C94990274
:1000A0000C9499020C9499020C94990252154F15D4
:1000B0004C1549154615431540153D153A1537158C
:1000C000341531152E152B152815251522151F153C
:1000D0001C1519151615131510150D150A150715EC
:1000E00004150115FE14FB14F814F514F214EF14A2
:1000F000EC14E914E614E314E014DD14DA14D71454
:10010000D414D114CE14CB14C814C514C214BF1403
:10011000BC14B914B614B314B014AD14AA14A714B3
:10012000A414A1149E149B1498149514921405A859
:100130004CCDB2D44EB93836A9020C50B99186884C
:10014000083CA6AAAA2ABE000000803F00010000C9
:100150008001120002000092014300030000D5015B
:100160000401030904D9011402030904EF01160371
:1001700003090407020C0001C11201803601813617
:100180001201000202000010C0167A0400010102F0
:10019000030109024300020100C03209040000010A
:1001A00002020100052400100105240101010424BC
:1001B0000206052406000107058203100040090419
:1001C0000100020A000000070503024000000705C5
:1001D000840240000004030904140359006F0075F1
:1001E00000720020004E0061006D006500000016E6
:1001F000035500530042002000530065007200695F
:100200000061006C0000000C033100320033003448
:100210000035000000000000000000005F0000004A
:1002200007000700147F147F14242A7F2A12231347
:1002300008646236495522500005030000001C2264
:1002400041000041221C0014083E081408083E0822
:10025000080050300000080808080800606000002E
:1002600020100804023E5149453E00427F400042B2
:10027000615149462141454B311814127F102745E1
:100280004545393C4A494930017109050336494918
:100290004936064949291E00363600000056360008
:1002A00000081422410014141414140041221408EC
:1002B0000201510906324979413E7E1111117E7FBA
:1002C000494949363E414141227F4141221C7F49F3
:1002D0004949417F090909013E4149497A7F080896
:1002E000087F00417F41002040413F017F081422E8
:1002F000417F404040407F020C027F7F0408107F16
:100300003E4141413E7F090909063E4151215E7F40
:1003100009192946464949493101017F01013F40F8
:1003200040403F1F2040201F3F4038403F6314089B
:10033000146307087008076151494543007F414134
:100340000002040810200041417F00040201020461
:100350004040404040000102040020545454787F43
:10036000484444383844444420384444487F38544E
:10037000545418087E0901020C5252523E7F080460
:10038000047800447D40002040443D007F10284414
:100390000000417F40007C041804787C0804047845
:1003A00038444444387C14141408081414187C7C11
:1003B000080404084854545420043F4440203C405E
:1003C00040207C1C2040201C3C4030403C442810F5
:1003D00028440C5050503C4464544C44000836416E
:1003E0000000007F000000413608001008081008D7
:1003F00078464146786E616E00696E660000407A0C
:1004000010F35A00A0724E18090010A5D4E800009D
:10041000E87648170000E40B54020000CA9A3B003B
:100420000000E1F505000080969800000040420FB2
:10043000000000A08601000000102700000000E876
:1004400003000000006400000000000A000000003B
:10045000000100000000002C76D888DC674F0823DC
:10046000DFC1DFAE59E1B1B796E5E3E453C63AE642
:1004700051997696E8E6C28426EB898C9B62ED4022
:100480007C6FFCEFBC9C9F40F2BAA56FA5F4900571
:100490005A2AF75C936B6CF9676DC11BFCE0E40DA5
:1004A00047FEF520E6B500D0ED902E030094357799
:1004B000050080841E080000204E0A000000C80CC1
:1004C000333333330F986E12831141EF8D2114892A
:1004D0003BE65516CFFEE6DB18D1844B381BF77C84
:1004E0001D901DA4BBE424203284725E228100C9C9
:1004F000F124ECA1E53D270011241FBECFEFDAE087
:10050000DEBFCDBF11E0A0E0B1E0E6EAF7E402C053
:1005100005900D92AA3BB107D9F71AE0AAEBB1E01A
:1005200001C01D92A132B107E1F70E9439130C946A
:10053000D1230C9400000F931F93FC014087518737
:100540006287738704871587268737871F910F91E6
:1005500008959C01442737FD4095542F60E874E8C6
:100560008EE190E00E94FC202150304040405040FD
:1005700056954795379527953093CD002093CC001D
:1005800082E08093C80088E18093C90086E0809370
:10059000CA000895982F8091C80085FFFCCF9093E2
:1005A000CE0008958091C80087FFFCCF8091CE00D7
:1005B00008951092900083E08093910014BC84E031
:1005C00085BD81E080936E008093710078940895DA
:1005D0001F920F920FB60F9211241F932F933F93E8
:1005E0004F935F936F937F938F939F93AF93BF933B
:1005F000EF93FF9360E070E011E0FB01EE0FFF1F4F
:10060000EE0FFF1FE25AFD4F80819181A281B381DD
:10061000880F991FAA1FBB1F80839183A283B38376
:1006200080819181A281B38187709070A070B07039
:1006300080839183A283B38320915E0230915F0215
:10064000409160025091610283B190E0A0E0B0E07F
:1006500081709070A070B070822B932BA42BB52B5F
:1006600080935E0290935F02A0936002B093610258
:1006700020916202309163024091640250916502C0
:1006800083B1869590E0A0E0B0E081709070A0709A
:10069000B070822B932BA42BB52B80936202909386
:1006A0006302A0936402B0936502209166023091C8
:1006B0006702409168025091690289B190E0A0E020
:1006C000B0E081709070A070B070822B932BA42B3F
:1006D000B52B8093660290936702A0936802B09353
:1006E000690220916A0230916B0240916C02509134
:1006F0006D0289B1869590E0A0E0B0E081709070C5
:10070000A070B070822B932BA42BB52B80936A0220
:1007100090936B02A0936C02B0936D0220916E02D5
:1007200030916F02409170025091710280E090E030
:10073000A0E0B0E01F9B04C081E090E0A0E0B0E04A
:10074000822B932BA42BB52B80936E0290936F0278
:10075000A0937002B09371022091720230917302E3
:1007600040917402509175028FB18295869586955D
:10077000837090E0A0E0B0E081709070A070B070E5
:10078000822B932BA42BB52B809372029093730230
:10079000A0937402B0937502209176023091770293
:1007A00040917802509179028FB182958695877039
:1007B00090E0A0E0B0E081709070A070B070822BEB
:1007C000932BA42BB52B8093760290937702A09362
:1007D0007802B0937902FB01EE0FFF1FEE0FFF1FAF
:1007E000E25AFD4F80819181A281B3810797A105D3
:1007F000B10529F4FB01EF5DFC4F10830CC0808133
:100800009181A281B3810097A105B10521F4FB017B
:10081000EF5DFC4F10826F5F7F4F6730710509F00D
:10082000ECCEFF91EF91BF91AF919F918F917F910E
:100830006F915F914F913F912F911F910F900FBE3C
:100840000F901F9018951F920F920FB60F921124C0
:100850008F939F93AF93BF938091C9019091CA01E9
:10086000A091CB01B091CC010196A11DB11D809347
:10087000C9019093CA01A093CB01B093CC01BF9161
:10088000AF919F918F910F900FBE0F901F90189571
:10089000AF92BF92CF92DF92EF92FF920F931F938E
:1008A0006091C9017091CA018091CB019091CC01F6
:1008B000E0909400F09095000E94121F20E030E03C
:1008C00040E857E40E9401205B016C0100E010E069
:1008D000C801B7010E94121F9B01AC01C601B501FE
:1008E0000E940E1E20E030E040E051E40E94012012
:1008F00020E034E244E759E40E94791E1F910F91F1
:10090000FF90EF90DF90CF90BF90AF9008952F921F
:100910003F924F925F926F927F928F929F92AF928F
:10092000BF92CF92DF92EF92FF920F931F93DF93CC
:10093000CF9300D0CDB7DEB72F89388D498D5A8D32
:100940004B8C5C8C6D8C7E8C2FA088A58A839EAD91
:10095000CCA4DDA4EEA4FFA488A899A8AAA8BBA84B
:100960003CAC8DAD898389A5882399F1992389F1C0
:10097000CA01B9010E94E11E8B01C701B6010E94A4
:10098000E11ECB01830D911D08171907DCF4020D40
:10099000111D06171707B4F0C301B2010E94E11E32
:1009A0008B01C501B4010E94E11ECB012981820F98
:1009B000911D0817190734F48A81080F111D0617B5
:1009C00017071CF41092AE0104C081E08093AE01C1
:1009D00001C080E00F900F90CF91DF911F910F9198
:1009E000FF90EF90DF90CF90BF90AF909F908F904F
:1009F0007F906F905F904F903F902F9008958F92CF
:100A00009F92AF92BF92CF92DF92EF92FF920F939D
:100A10001F93DF93CF93CDB7DEB765970FB6F894EA
:100A2000DEBF0FBECDBFD82EC92EABACBCAC89ADDE
:100A30009AAD9C018901EE24FF2424E230E02C0FC2
:100A40003D1F490137C08DB79EB78A970FB6F894FE
:100A50009EBF0FBE8DBF2DB73EB72F5F3F4FD90151
:100A6000F40185E101900D928150E1F7D90155968D
:100A7000F80185E101900D928150E1F70E94870411
:100A80002DB73EB7265D3F4F0FB6F8943EBF0FBE61
:100A90002DBF882351F08D2D9C2D9C01D901F8018B
:100AA00085E101900D928150E1F70894E11CF11C61
:100AB0000B5E1F4FEA14FB0434F28D2D9C2D6596BE
:100AC0000FB6F894DEBF0FBECDBFCF91DF911F915F
:100AD0000F91FF90EF90DF90CF90BF90AF909F90DD
:100AE0008F9008958091C101882309F049C08091B9
:100AF0007F01882301F1609128037091290380917F
:100B00002A0390912B0320E030E040E85FE30E944D
:100B10000E1E609328037093290380932A039093F9
:100B20002B0320E030E044EA52E40E94721E882346
:100B300011F410927F0180917F01882309F5609163
:100B400028037091290380912A0390912B0320E0C0
:100B500030E040E05FE30E940D1E60932803709335
:100B6000290380932A0390932B0320E030E040E890
:100B70005FE30E94721E882319F481E080937F0155
:100B800008956091B8027091B9028091BA02909173
:100B9000BB0220E030E044EA52E40E94FD1F8823BB
:100BA00064F080E090E0A0EAB0EC8093B80290930B
:100BB000B902A093BA02B093BB026091CD027091CA
:100BC000CE028091CF029091D00220E030E044EA42
:100BD00052E40E94FD1F882364F080E090E0A0EAC8
:100BE000B0EC8093CD029093CE02A093CF02B0934D
:100BF000D0026091E2027091E3028091E402909150
:100C0000E50220E030E044EA52E40E94FD1F882320
:100C100064F080E090E0A0EAB0EC8093E202909370
:100C2000E302A093E402B093E5026091F7027091B1
:100C3000F8028091F9029091FA0220E030E044EA53
:100C400052E40E94FD1F882364F080E090E0A0EA57
:100C5000B0EC8093F7029093F802A093F902B0935E
:100C6000FA0208958091E0018823B9F081E0809331
:100C7000AE011092E0018091E1019091E2010196B4
:100C80009093E2018093E1018091E3019091E4016E
:100C900001969093E4018093E3018091E1019091AA
:100CA000E201C397BCF08091E3019091E401C39706
:100CB0008CF08091BA019091BB0101969093BB0199
:100CC0008093BA011092E2011092E1011092E401C6
:100CD0001092E3010895DC010D900020E9F71197CF
:100CE000A81BB90BBD010E94441408959C0189B151
:100CF000869580FF02C027E730E01F9B02C023E7F4
:100D000030E083B1869580FF02C021E630E0489B49
:100D100003C024E630E003C0121613061CF4822F31
:100D20000E94E21308950E9473130E948C1388237B
:100D3000E1F30895AF92BF92CF92DF92EF92FF92CC
:100D40000F931F93C0903D03D0903E03E0903F036C
:100D5000F0904003609141037091420380914303FE
:100D60009091440320E030E040EA50E40E940D1EE0
:100D70008B019C018AE792E0B701A601A8E0EA2E68
:100D8000F5E0CF2EEDE8AE2EE1E0BE2E0E94D219A6
:100D90001F910F91FF90EF90DF90CF90BF90AF9099
:100DA00008958F929F92AF92BF92CF92EF920F933E
:100DB0001F93CF93DF93A8EB8A2EA2E09A2EC0E078
:100DC000D0E02A96BE01882777FD8095982F0E9453
:100DD000141FAB01BC01C40100E010E020E231ECC3
:100DE000F5E0EF2EE4E0CE2EB9EAAB2EB1E0BB2E5B
:100DF0000E94D21985E190E0880E991EC233D10578
:100E000001F7DF91CF911F910F91EF90CF90BF909D
:100E1000AF909F908F9008958F929F92AF92BF92C4
:100E2000CF92DF92EF92FF920F931F9380918001F8
:100E300090918101181619060CF050C001979093FB
:100E40008101809380018091D5019091D601A5E127
:100E50008A2E912C889D7001899DF00C989DF00C34
:100E600011248BEE91E0E80EF91EA0907A02B0906A
:100E70007B02C0907C02D0907D0260917E027091D6
:100E80007F02809180029091810220E030E040EA70
:100E900050E40E940D1E8B019C01C701B601A50103
:100EA000F4E0EF2EE4E0CE2EB4EAAB2EB1E0BB2EA0
:100EB0000E94D2198091D5019091D601889DF001B0
:100EC000899DF00D989DF00D1124E551FE4F21E014
:100ED000228B01969093D6018093D5011F910F919B
:100EE000FF90EF90DF90CF90BF90AF909F908F904A
:100EF0000895AF92BF92CF92DF92EF92FF920F933D
:100F00001F93DF93CF93CDB7DEB7C055D0400FB658
:100F1000F894DEBF0FBECDBF0E9491170E94480417
:100F20000E94E11E5B016C0100D000D000D0EDB743
:100F3000FEB7319695E1E92EF12CEC0EFD1EADB712
:100F4000BEB71296FC92EE92119780E091E09383E7
:100F5000828380917B0190917C01958384830E94A0
:100F60001523EDB7FEB731968E01075D1F4FADB764
:100F7000BEB712961C930E9311978CE091E0938369
:100F800082838091BA019091BB01958384830E94F2
:100F900015238DB79EB706960FB6F8949EBF0FBE69
:100FA0008DBF80E090E060E070E0A70121E00E944A
:100FB000461980E090E06AE070E0A80121E00E941C
:100FC000461980E090E064E170E048E151E021E002
:100FD0000E944619ADB7BEB718970FB6F894BEBFBA
:100FE0000FBEADBFEDB7FEB731968DE3E82EF12C05
:100FF000EC0EFD1E1296FC92EE9211978EE191E09E
:1010000093838283C5016CE370E00E94E9207583BD
:101010006483C5016CE370E00E94E92097838683B6
:101020000E9415238DB79EB708960FB6F8949EBF01
:101030000FBE8DBF89E190E064E170E0A70121E07F
:101040000E94461900D000D000D0EDB7FEB731960F
:10105000ADB7BEB712961C930E93119788E291E03C
:10106000938382838091E5019091E6019583848347
:101070000E941523EDB7FEB73196ADB7BEB71296F5
:101080001C930E93119785E391E093838283809163
:10109000D5019091D601958384830E9415238DB745
:1010A0009EB706960FB6F8949EBF0FBE8DBF80E028
:1010B00090E06EE170E0AE014F5F5F4F21E00E9473
:1010C000461980E090E068E270E0AE01455F5F4F56
:1010D00021E00E9446190E947E17C05BDF4F0FB6C9
:1010E000F894DEBF0FBECDBFCF91DF911F910F915E
:1010F000FF90EF90DF90CF90BF90AF9008951F9337
:10110000CF93DF938FEF9FEF0E9476068091DF01F0
:10111000882309F0A8C080912103813009F58093CC
:10112000C201C8ECD0E018C00E9491170E94790754
:101130000E947E1788E893E1FE013197F1F701974D
:10114000D9F7189B09C01092C20188E893E1FE010B
:101150003197F1F70197D9F78091C201882321F7E0
:10116000109122031130F1F460917A0270917B02A8
:1011700080917C0290917D0220E030E040E85FE3C6
:101180000E940D1E60937A0270937B0280937C0212
:1011900090937D021093D8011093DC011092DB0133
:1011A0001092DA01109123031130F1F460917A0268
:1011B00070917B0280917C0290917D0220E030E072
:1011C00040E85FE30E940E1E60937A0270937B02F8
:1011D00080937C0290937D021093D8011093DD01DF
:1011E0001092DB011092DA01109124031130E1F426
:1011F00060918602709187028091880290918902A5
:1012000020E030E040E250E40E940D1E6093860230
:101210007093870280938802909389021093D8017B
:101220001092DB011092DA0180912503813031F4B4
:101230008093D8011092DB011092DA01809126038D
:1012400090912703913031F48091C10189278093D7
:10125000C10109C08091DA019091DB010196909360
:10126000DB018093DA01DF91CF911F910895CF9335
:10127000DF93CBEED1E0CE010E94F619659682E0B5
:10128000C435D807C1F7DF91CF910895CF93DF938D
:101290000E9448040E94E11E643071059CF0C8EB76
:1012A000D2E0CE010E94F6198091E5019091E6010D
:1012B00001969093E6018093E501659683E0C13243
:1012C000D80779F7DF91CF9108958F929F92AF92CF
:1012D000BF92CF92DF92EF92FF920F931F93CF9323
:1012E000DF9336E5A32E32E0B32ECC24DD24EE24AA
:1012F000FF2425E1822E912C16C0CE010E94F61902
:101300000894C11CD11C0F5F1F4F6596F5018081A9
:101310009181081719078CF30894E11CF11C82E0F5
:1013200090E0A80EB91E8091860190918701E81681
:10133000F90664F4C89CE001C99CD00DD89CD00D7E
:101340001124C35CDC4F00E010E0E0CFDF91CF91CF
:101350001F910F91FF90EF90DF90CF90BF90AF90D3
:101360009F908F9008958AE792E00E94F6190E945C
:10137000370988E293E00E94F6190E9465090E94ED
:101380004609089521985098519827982098869852
:10139000859880E090E0FC01EE0FFF1FEE0FFF1F2D
:1013A000E25AFD4F10821182128213820196873019
:1013B000910589F70E94D90280E88093610081E05D
:1013C000809361008FE30E9489190E94911785E044
:1013D00090E06AE070E040E451E021E00E944619AC
:1013E00085E090E064E170E049E451E021E00E9492
:1013F000461985E090E06EE170E041E551E021E0C2
:101400000E9446190E947E177E9BE1CF1092C9016F
:101410001092CA011092CB011092CC010E94911738
:101420000895DF92EF92FF920F931F93F82EE62E0E
:10143000D22E8DB79EB708970FB6F8949EBF0FBEF9
:101440008DBFEDB7FEB7319604EA12E0ADB7BEB777
:1014500012961C930E93119784E190E093838283FC
:101460008BE591E095838483578346830E94E42231
:101470008DB79EB708960FB6F8949EBF0FBE8DBF6E
:101480008F2D90E06E2D70E0A8012D2D0E94461941
:101490001F910F91FF90EF90DF900895DF92EF92F0
:1014A000FF920F931F93182FD62E8DB79EB70A97D2
:1014B0000FB6F8949EBF0FBE8DBFEDB7FEB7319645
:1014C00064EAE62E62E0F62EADB7BEB71296FC9245
:1014D000EE92119784E190E0938382838EE591E010
:1014E0009583848326833783408751870E94E42233
:1014F0008DB79EB70A960FB6F8949EBF0FBE8DBFEC
:10150000812F90E06D2D70E0A701202F0E944619D9
:101510001F910F91FF90EF90DF9008952F923F92CF
:101520004F925F926F927F928F929F92AF92BF92F3
:10153000CF92DF92EF92FF920F931F93DF93CF939F
:1015400000D000D000D0CDB7DEB79E838D83CB0115
:10155000BA012BED3FE049E450E40E94012020E075
:1015600030E044E353E40E94791E7B018C01C80102
:101570000E9484205B016C01B701C8010E94761EA5
:1015800069837A838B839C83ED81FE81608471847F
:10159000828493842484358446845784A4019301EF
:1015A0000E9401207B018C01C601B501A2019101BD
:1015B0000E9401209B01AC01C801B7010E940E1ED0
:1015C000ED81FE816087718782879387D7FAD094F7
:1015D000D7F8D094C601B501A40193010E9401205F
:1015E0007B018C0169817A818B819C81A2019101AF
:1015F0000E9401209B01AC01C801B7010E940E1E90
:10160000ED81FE81648775878687978726960FB65A
:10161000F894DEBF0FBECDBFCF91DF911F910F9128
:10162000FF90EF90DF90CF90BF90AF909F908F9002
:101630007F906F905F904F903F902F900895AF9262
:10164000BF92CF92DF92EF92FF920F931F93CF93AF
:10165000DF93EC018091D3019091D401892B09F0A3
:1016600042C00F2EFDECAF2EFCECBF2EFCECCF2EBB
:10167000FDE3DF2EF02DA0924503B0924603C09209
:101680004703D09248030F2EF0E0EF2EF0E0FF2E3C
:10169000F0E00F2FF0E01F2FF02DE0924903F092C1
:1016A0004A0300934B0310934C038DE393E0B8017E
:1016B000A7010E948E0A85E190E0C89FF001C99FB2
:1016C000F00DD89FF00D1124E35CFC4FA086B1868D
:1016D000C286D386E486F58606871787CF01B801D0
:1016E000A7010E948E0A8091D3019091D4010197A5
:1016F00011F585E190E0C89FF001C99FF00DD89FDA
:10170000F00D1124E35CFC4F8DEC9CECACECBDEBDC
:1017100080879187A287B38780E090E0A0E0B0E067
:1017200084879587A687B787CF0140E050E060E0C7
:1017300070E00E948E0A8091D3019091D4010297AB
:1017400031F585E190E0C89FF001C99FF00DD89F69
:10175000F00D1124E35CFC4F8DEC9CECACECBDE394
:1017600080879187A287B38780E090E0A0E0B0E017
:1017700084879587A687B787CF0140E050E060E077
:1017800070E00E948E0A1092D4011092D301DF9172
:10179000CF911F910F91FF90EF90DF90CF90BF906E
:1017A000AF9008952F923F924F925F926F927F92E7
:1017B0008F929F92AF92BF92CF92EF920F931F930F
:1017C000DF93CF93CDB7DEB72C970FB6F894DEBF7B
:1017D0000FBECDBF26E532E03A83298380E090E05A
:1017E000A0E4B1E48F839887A987BA87A1E0B0E02D
:1017F000BE83AD831C821B82F3C01092D201109273
:10180000D1012D813E8145E150E0249FF001259FCB
:10181000F00D349FF00D1124E35CFC4FFC87EB8747
:101820000F2EF0E06F2EF0E07F2EF0E08F2EF0E034
:101830009F2EF02D90C00E94BA2164E670E00E94B5
:10184000E920AA2797FDA095BA2FBC01CD010E94DF
:10185000141F1B012C0120E030E040E752E40E94FD
:10186000721E8823F4F4C401B30120E030E040E0AC
:1018700050E40E940E1EAB01BC018B859C850F813C
:10188000188529853A85FAE0EF2EE2E0CE2EB2E9FE
:10189000AB2EB1E0BB2E0E94D2198D819E810E9499
:1018A0001F0BC201B10120E030E040E752E40E948A
:1018B000FD1F18164CF5C201B10120E030E04EEBDF
:1018C00052E40E94721E8823FCF4C401B30120E09C
:1018D00030E040E050E40E940E1EAB01BC018B855D
:1018E0009C850F81188529853A85AAE0EA2EF2E0C9
:1018F000CF2EE6E9AE2EE1E0BE2E0E94D2198D81F8
:101900009E810E941F0B0AC0C401B30120E030E099
:1019100040E251E40E940E1E3B014C018D819E81EC
:1019200001969E838D838091D1019091D201019681
:101930009093D2018093D101C401B30120E030E043
:1019400040EA51E40E940E1E3B014C01AB85BC8570
:101950005596BC87AB8760918201709183016C5072
:101960007040882777FD8095982F0E94141F9B0157
:10197000AC01C401B3010E94721E87FD5CCF80914F
:10198000D3019091D40101969093D4018093D30117
:101990002091D1013091D201E981FA8121933193D3
:1019A000FA83E9838091540290915502820F931F2C
:1019B00090935502809354026F81788589859A852A
:1019C00020E030E040E451E40E940E1E6F837887EF
:1019D00089879A872B813C812F5F3F4F3C832B83E4
:1019E00080918601909187014B815C81481759074E
:1019F0000CF403CF2C960FB6F894DEBF0FBECDBF0C
:101A0000CF91DF911F910F91EF90CF90BF90AF904A
:101A10009F908F907F906F905F904F903F902F900E
:101A20000895AF92BF92CF92EF920F931F93CF93EF
:101A3000DF9360918201709183016A507040882722
:101A400077FD8095982F0E94141FAB01BC018AE797
:101A500092E000E010E020EA30E4F8E0EF2EE5E06C
:101A6000CE2EBDE8AB2EB1E0BB2E0E94D21988E28B
:101A700093E040E050E060E070E400E010E02CE231
:101A800032E4A3E0EA2EF3E0CF2EEAE9AE2EE1E065
:101A9000BE2E0E94D21960918201709183016C5018
:101AA0007040882777FD8095982F0E94141FAB0106
:101AB000BC018DE393E000E010E020E431E4BAE003
:101AC000EB2EA2E0CA2EF2E9AF2EF1E0BF2E0E946B
:101AD000D219CBEED1E0CE0140E050E060E070E002
:101AE0008A019B01E4E0EE2EB4E0CB2EA4EAAA2EFC
:101AF000A1E0BA2E0E94D2191A8A659682E0CF33ED
:101B0000D80749F70E94D20B0E94D106DF91CF91EE
:101B10001F910F91EF90CF90BF90AF9008950E94CA
:101B200093060E94C2090E94110D0E9448040E945F
:101B3000E61EDC01CB010E94BF210E947E170895A2
:101B40008091D701882309F46DC01092BB011092D7
:101B5000BA018AE090E090937C0180937B0180E061
:101B600090E0A0E0B0E08093BC019093BD01A09311
:101B7000BE01B093BF011092C0011092C10110923A
:101B8000C20181E090E090937E0180937D011092EC
:101B9000C4011092C30181E080937F011092C501BE
:101BA0001092C6011092C7011092C8011092C9018B
:101BB0001092CA011092CB011092CC011092CE016A
:101BC0001092CD011092D0011092CF011092D2014B
:101BD0001092D1011092D4011092D30184E090E0D0
:101BE0009093D6018093D5011092E0011092E2010A
:101BF0001092E1011092E4011092E3010E94C209E7
:101C00000E94110D0E94480420E030E543EC57E4A7
:101C10000E9401200E94E61EDC01CB010E94BF2130
:101C20000E947E170895AF92BF92CF92DF92EF92FB
:101C3000FF920F931F93DF93CF93CDB7DEB7EC974F
:101C40000FB6F894DEBF0FBECDBF0E9448040E94BD
:101C5000E11E5B016C010E94911780E090E061E061
:101C600070E041E651E021E00E94461900D000D02A
:101C700000D0EDB7FEB731967E010894E11CF11C4F
:101C8000ADB7BEB71296FC92EE92119780E091E04C
:101C90009383828380917B0190917C0195838483DF
:101CA0000E941523EDB7FEB731968E010B5E1F4FD4
:101CB000ADB7BEB712961C930E9311978CE091E0CE
:101CC000938382838091BA019091BB019583848331
:101CD0000E9415238DB79EB706960FB6F8949EBF47
:101CE0000FBE8DBF80E090E06BE070E0A70121E0C7
:101CF0000E94461980E090E065E170E0A80121E0D3
:101D00000E94461980E090E06FE170E048E151E008
:101D100021E00E944619ADB7BEB718970FB6F894E8
:101D2000BEBF0FBEADBFEDB7FEB731968E01075DEA
:101D30001F4F12961C930E9311978EE191E093839F
:101D40008283C5016CE370E00E94E920758364839F
:101D5000C5016CE370E00E94E920978386830E94AE
:101D600015238DB79EB708960FB6F8949EBF0FBE89
:101D70008DBF89E190E06FE170E0A80121E00E9451
:101D800046190E947E1721E001E00FC07D9B02C032
:101D900081E090E07E9B0DC090937E0180937D0159
:101DA0000093D7010E94A00D20E080917D019091C9
:101DB0007E01222359F790937E0180937D01EC965A
:101DC0000FB6F894DEBF0FBECDBFCF91DF911F914C
:101DD0000F91FF90EF90DF90CF90BF90AF9008955C
:101DE00080917B0190917C01019790937C0180937D
:101DF0007B011816190614F00E94130E08954F92D5
:101E00005F926F927F928F929F92AF92BF92CF928A
:101E1000DF92EF92FF920F931F93DF93CF9300D047
:101E200000D0CDB7DEB76C01DC01ED90FD900D91D7
:101E30001C91C801B7010E9464204B015C01D601CE
:101E400014968D919D910D90BC91A02D89839A83BC
:101E5000AB83BC83C801B701F6012085318542857B
:101E600053850E940E1E7B018C01D6016D937D93DC
:101E70008D939C93139769817A818B819C811C96A9
:101E80002D913D914D915C911F970E940E1E2B014B
:101E90003C01CB01D301F60184839583A683B783EC
:101EA000C801B7010E9464200E94E11E7B018C01E1
:101EB000C501B4010E94E11EE616F706E9F4B2017D
:101EC000C3010E9464207B018C0169817A818B812E
:101ED0009C810E9464205B016C0166247724C80108
:101EE000B7010E94E11E7B018C01C601B5010E9471
:101EF000E11EE616F70619F0A1E06A2E712C862D78
:101F00000F900F900F900F90CF91DF911F910F9135
:101F1000FF90EF90DF90CF90BF90AF909F908F9009
:101F20007F906F905F904F900895DF93CF93CDB7E0
:101F3000DEB72D853E854F8558898091DA019091D5
:101F4000DB01069734F01092D8011092DB01109259
:101F5000DA018091D801882349F4209382023093DA
:101F60008302409384025093850238C08091DC0143
:101F70008823C1F060918202709183028091840273
:101F8000909185022DEC3CEC4CEC5DE30E940D1E23
:101F900060938202709383028093840290938502FF
:101FA0001092DC018091DD018823C1F060918202F2
:101FB0007091830280918402909185022DEC3CEC1B
:101FC0004CEC5DE30E940E1E6093820270938302CC
:101FD00080938402909385021092DD0160917E02CD
:101FE00070917F02809180029091810220918602FF
:101FF0003091870240918802509189020E940E1E02
:1020000060937E0270937F0280938002909381029E
:1020100060917A0270917B0280917C0290917D02A6
:102020002091820230918302409184025091850276
:102030000E940E1E60937A0270937B0280937C0252
:1020400090937D028AE792E00E94FF0ECF91DF918C
:102050000895DF93CF93CDB7DEB70E9432068DB7D8
:102060009EB745970FB6F8949EBF0FBE8DBFADB714
:10207000BEB71196FE01359685E101900D92815013
:10208000E1F70E94950F8DB79EB745960FB6F8946D
:102090009EBF0FBE8DBFCF91DF9108956F927F924B
:1020A0008F929F92AF92BF92CF92DF92EF92FF9268
:1020B0000F931F93DF93CF93CDB7DEB7AA970FB6D9
:1020C000F894DEBF0FBECDBF2DB73EB729513040CB
:1020D0000FB6F8943EBF0FBE2DBFEDB7FEB73196D9
:1020E0009F014AE752E085E1DA010D90AD01D90187
:1020F0000D929D018150C1F78DE393E0968B858B06
:102100008091540290915502908F878BCE01019659
:102110000E94FF048C889D88EDB7FEB779960FB6B4
:10212000F894FEBF0FBEEDBFF2E98F16F1E09F06F7
:10213000E1F460917E0270917F0280918002909123
:10214000810220E030E040E050E40E940D1E6093E8
:102150007E0270937F02809380029093810281E0DF
:102160008093E0011092DF0108C081E08093DF01DD
:1021700026E9821621E0920661F160917E0270915B
:102180007F02809180029091810220E030E040E463
:1021900052E40E94FD1F87FF1CC0E0907A02F0907D
:1021A0007B0200917C0210917D02C801B70120E002
:1021B00030E044EA52E40E94FD1F87FF0AC0C801D4
:1021C000B70120E030E040E050E00E94721E88231A
:1021D00024F40E94F00E0E949A060CEB12E0EE240A
:1021E000FF2496E1692E712C6C0E7D1E85E1A82ED0
:1021F000B12CBDE3CB2EB3E0DB2E8DB79EB7499754
:102200000FB6F8949EBF0FBE8DBF4DB75EB74F5F40
:102210005F4FEA9CF001EB9CF00DFA9CF00D11244D
:102220009A01E854FD4F85E10190D9010D929D017D
:102230008150D1F7FA01D68AC58A809154029091D3
:102240005502908F878BC3010E94FF042DB73EB7C4
:10225000275E3F4F0FB6F8943EBF0FBE2DBF89A536
:102260009AA582599140E1F4D8016D917D918D91AB
:102270009C912DEC3CEC4CE45EE30E940D1EF801B9
:1022800060837183828393838091AE01882341F0C0
:102290008E8D9F8DA8A1B9A184839583A683B783D2
:1022A0000894E11CF11C0B5E1F4FF4E0EF16F104E3
:1022B00009F0A3CF2DB73EB72A5230400FB6F8949D
:1022C0003EBF0FBE2DBF2F5F3F4FD901EAE7F2E0BF
:1022D00085E101900D928150E1F7D9015596E8E230
:1022E000F3E085E101900D928150E1F70E948704AF
:1022F000ADB7BEB79A960FB6F894BEBF0FBEADBFCE
:10230000882311F10E949A0680917B0190917C01B3
:10231000029690937C0180937B0181E08093C101C0
:1023200088E293E040E050E060EA70EC8A019B01B3
:10233000A3E0EA2EF3E0CF2EEAE9AE2EE1E0BE2ED6
:102340000E94D21910923A039D8A8C8AEDB7FEB78B
:1023500075970FB6F894FEBF0FBEEDBFADB7BEB711
:102360001196FE01319685E101900D928150E1F7C1
:102370000E94291080E090E0A0E8BFE380938602ED
:1023800090938702A0938802B093890208EB12E031
:102390002DB73EB72B5E3F4F0FB6F8943EBF0FBE32
:1023A0002DBF0F2EFDECCF2EFCECDF2EFCECEF2E24
:1023B000FDE3FF2EF02DD8011C96CD92DD92ED921B
:1023C000FC921F97C8010E94FF0E0B5E1F4FB3E0E7
:1023D00001321B0781F7EE24FF2406E1802E912CA9
:1023E0008C0E9D1E15E1C12ED12CBDE3AB2EB3E0AA
:1023F000BB2E78C0EDB7FEB779970FB6F894FEBF45
:102400000FBEEDBF4DB75EB74F5F5F4F8C9DF001C4
:102410008D9DF00D9C9DF00D11249A01E551FE4F0C
:1024200085E10190D9010D929D018150D1F7FA010A
:10243000B68AA58A8091540290915502908F878B1D
:10244000C4010E94FF042DB73EB7275E3F4F0FB671
:10245000F8943EBF0FBE2DBF89A59AA58259914021
:10246000F9F48091D5019091D6018C9D80018D9DCC
:10247000100D9C9D100D112405511E4FD80114966E
:102480006D917D918D919C91179720E030E040E017
:1024900050E40E940D1EF801648375838683978340
:1024A0008091D5019091D6018C9D80018D9D100D5C
:1024B0009C9D100D112405511E4FD80114966D914D
:1024C0007D918D919C91179720E030E040E85FE38B
:1024D0000E940E1EF8016483758386839783089497
:1024E000E11CF11C8091D5019091D6018E159F05BC
:1024F0000CF080CFAA960FB6F894DEBF0FBECDBF0A
:10250000CF91DF911F910F91FF90EF90DF90CF90CF
:10251000BF90AF909F908F907F906F900895EF92B3
:10252000FF920F931F93CF93DF93C8EBD2E00F2E50
:10253000F0E0EF2EF0E0FF2EF0E80F2FFFE31F2F6B
:10254000F02DCE010E94FF0E688179818A819B81E6
:1025500020E030E048EA52E40E94FD1F882324F086
:10256000E882F9820A831B83688179818A819B8151
:1025700020E030E040E050E00E94721E882344F4E6
:1025800080E090E0A8EAB2E488839983AA83BB83C1
:10259000659683E0CC30D807A1F6DF91CF911F91EB
:1025A0000F91FF90EF900895CF92DF92EF92FF92FC
:1025B0000F931F93CF93DF93CDE3D3E000E010E0C0
:1025C0000F2EF0E0CF2EF0E0DF2EF0E8EF2EFFE34D
:1025D000FF2EF02D2AC0CE010E94FF0E6881798166
:1025E0008A819B8120E030E048EA52E40E94FD1F8E
:1025F000882324F0C882D982EA82FB8268817981AB
:102600008A819B8120E030E040E050E00E94721E11
:10261000882344F480E090E0A8EAB2E488839983B8
:10262000AA83BB830F5F1F4F6596809154029091E0
:102630005502081719077CF2DF91CF911F910F9176
:10264000FF90EF90DF90CF9008950E9472050E9456
:10265000D4120E948F1208950E947F080E94911741
:102660000E9425130E94B3090E944E100E947E17FB
:1026700008950E948F0D8CE691E00E946B06609198
:102680007A0270917B0280917C0290917D020E947F
:10269000E61EDC01CB010E94E21388E791E00E9474
:1026A0006B0660917E0270917F0280918002909112
:1026B00081020E94E61EDC01CB010E94E2130AC0E7
:1026C0000E942C138091C3019091C401019711F4D1
:1026D0000E947E1780917D0190917E01892B81F768
:1026E00080E090E0089581E08093D70080EA8093B5
:1026F000D80082E189BD09B400FEFDCF80E9809356
:10270000D8001092E0001092E7011092E8018CE0EE
:102710008093E200789408958091E70108952FB79F
:10272000F8948091E701882369F083E08093E900C1
:102730009BE68091E80085FD09C082FF03C090936D
:10274000E800F7CF2FBF2FEF3FEF0CC09091F100C3
:102750008091E80085FD03C08BE68093E8002FBFE1
:10276000292F30E0C90108952FB7F8948091E7012F
:10277000882311F490E010C083E08093E9009091E9
:10278000F200992349F48091E80082FF05C085FD9D
:1027900003C08BE68093E8002FBF892F08958091B6
:1027A000E701882371F09FB7F89483E08093E900F4
:1027B0002BE602C02093E8008091E80085FDFACF67
:1027C0009FBF0895482F8091E7018823D9F12FB743
:1027D000F89484E08093E9008091EA01882341F035
:1027E0008091E80085FD02C02FBF12C01092EA015F
:1027F0009091E400975E34E08091E80085FD13C07D
:102800002FBF8091E400891729F481E08093EA01C9
:102810008FEF08958091E7018823A1F02FB7F894F6
:102820003093E900E9CF4093F1008091E80085FD05
:1028300003C08AE38093E80085E08093E9012FBF1D
:1028400080E008958FEF0895282F8091E701882375
:1028500051F09FB7F89484E08093E9008091E800FC
:1028600085FD03C09FBF8FEF08952093F1008091F5
:10287000E80085FD03C08AE38093E80085E080934B
:10288000E9019FBF80E00895CF93DF93EC01809131
:10289000E701882309F41CC13FB7F89484E08093D2
:1028A000E9008091EA01882309F408C18091E800D9
:1028B00085FD02C03FBF0CC11092EA01FFC090919C
:1028C000E400975E8091E80085FD13C03FBF8091D2
:1028D000E400891721F481E08093EA01F9C0809136
:1028E000E701882309F4F4C03FB7F894B093E900F6
:1028F000E9CF8091F200242F281B822F90E06817E7
:10290000790708F4262F822F90E08134910508F092
:10291000C6C08A5A9F4FFC01EE0FFF1F0590F4912D
:10292000E02D099489918093F10089918093F100C1
:1029300089918093F10089918093F100899180932E
:10294000F10089918093F10089918093F100899140
:102950008093F10089918093F10089918093F10037
:1029600089918093F10089918093F10089918093FE
:10297000F10089918093F10089918093F100899110
:102980008093F10089918093F10089918093F10007
:1029900089918093F10089918093F10089918093CE
:1029A000F10089918093F10089918093F1008991E0
:1029B0008093F10089918093F10089918093F100D7
:1029C00089918093F10089918093F100899180939E
:1029D000F10089918093F10089918093F1008991B0
:1029E0008093F10089918093F10089918093F100A7
:1029F00089918093F10089918093F100899180936E
:102A0000F10089918093F10089918093F10089917F
:102A10008093F10089918093F10089918093F10076
:102A200089918093F10089918093F100899180933D
:102A3000F10089918093F10089918093F10089914F
:102A40008093F10089918093F10089918093F10046
:102A500089918093F10089918093F100899180930D
:102A6000F10089918093F10089918093F10089911F
:102A70008093F10089918093F10089918093F10016
:102A800089918093F10089918093F10089918093DD
:102A9000F10089918093F10089918093F1008991EF
:102AA0008093F1008091E80085FD02C05093E8001A
:102AB000621B7109A093E9013FBF04C0B4E040E488
:102AC0005AE3A5E06115710509F0F9CE80E001C077
:102AD0008FEFDF91CF9108959FB7F8948091E9012E
:102AE000882341F084E08093E9008AE38093E80042
:102AF0001092E9019FBF08956091AF017091B001FC
:102B00008091B1019091B20108958091B30108952F
:102B10008091B40108958091B50108958091E801F4
:102B20000895282F9FB7F8948091E701882339F002
:102B300082E08093E9008091E80085FD03C09FBF9B
:102B40008FEF089581EA8093F10080E28093F10095
:102B50001092F1001092F1001092F1001092F10029
:102B600081E08093F1001092F1002093F1008AE35C
:102B70008093E8009FBF80E008951F920F920FB6E8
:102B80000F9211248F939F938091E1001092E100A6
:102B9000982F83FF11C01092E90081E08093EB0031
:102BA0001092EC0082E18093ED0088E08093F000C9
:102BB0001092E7011092E80192FF13C08091E701A3
:102BC000882379F08091E901882359F0815080931E
:102BD000E901882331F484E08093E9008AE380935B
:102BE000E8009F918F910F900FBE0F901F90189546
:102BF0001F920F920FB60F9211240F931F932F93D2
:102C00003F934F935F936F937F938F939F93AF9374
:102C1000BF93EF93FF931092E9008091E80083FF48
:102C20003CC14091F1003091F1008091F100682F9A
:102C300070E02091F100922F80E0682B792B809139
:102C4000F100A82FB0E02091F100922F80E0A82B96
:102C5000B92B1091F1000091F10082EF8093E80010
:102C6000363009F05AC023E531E0A9014550504003
:102C7000F9013797859194918617970701F5FA0125
:102C8000859194918A179B07D1F49A012E5F3F4F4B
:102C9000F901659174912E5F3F4FF9014491212F05
:102CA00030E0902F80E0282B392B2F3F310519F091
:102CB00010F02FEF30E0241758F4422F09C0295F9D
:102CC0003F4F495F5F4FF1E02D373F0789F6E5C081
:102CD0005EEF8091E800282F30E0C9018570907088
:102CE000892BB9F322FDDCC0342F413108F030E1EB
:102CF000232FCB0106C0FC010196E491E093F10083
:102D000021502223C1F7630F711D431B5093E8002C
:102D10004423F9F63031E9F2C3C0353061F48EEF67
:102D20008093E8008091E80080FFFCCF862F8068C8
:102D30008093E300B5C0393051F5442309F0ADC0AC
:102D40006093E7011092E8011092E9018EEF809301
:102D5000E80086E791E021E02093E900FC0101967C
:102D6000E491E093EB00EE2369F0AC014F5F5F4F1D
:102D7000FC0184918093EC00CA010196FA01349120
:102D80003093ED002F5F253039F78EE181C0383068
:102D900061F4403809F081C08091E80080FFFCCFE9
:102DA0008091E7018093F10050C0313289F4413ABB
:102DB00009F073C08091E80080FFFCCFEFEAF1E0FA
:102DC00081918093F10081E0E63BF807C9F73DC0AF
:102DD0003032A1F4413209F060C08091E80082FFF6
:102DE000FCCFEFEAF1E08091F100819381E0E63BD6
:102DF000F807C9F78BEF8093E80027C0323251F40F
:102E0000413209F04AC06093E8018091E80080FFF8
:102E1000FCCF1BC03323E9F48091E80080FFFCCF96
:102E2000423811F080E00DC0A093E9008091EB00E2
:102E300090E025E0969587952A95E1F781701092AC
:102E4000E9008093F1001092F1008EEF8093E8008A
:102E500027C0313011F0333001F54230F1F4672BE7
:102E6000E1F42A2F2F77822F81508430B0F48EEF37
:102E70008093E8002093E900333079F089E1809372
:102E8000EB0081E090E002C0880F991F2A95E2F7DD
:102E90008093EA001092EA0003C081E28093EB0085
:102EA000FF91EF91BF91AF919F918F917F916F9122
:102EB0005F914F913F912F911F910F910F900FBEF6
:102EC0000F901F90189587E880937A000895982FA7
:102ED0009F71906490937C00807280937B008091BE
:102EE0007A00806480937A0080917A0086FDFCCF1E
:102EF0002091780030917900C9010895CF93DF9334
:102F000060E080E00E94C619C9E2D8E0699181E0E2
:102F10000E946B198AE0C132D807C1F7DF91CF91C7
:102F20000895E9E2F8E011928AE0E132F807D9F772
:102F3000089584359105F8F460337105E0F49B0140
:102F400073E0359527957A95E1F774E5729FF00166
:102F5000739FF00D1124E80FF91FE75DF74F808193
:102F6000677021E030E001C0220F6A95EAF7452B37
:102F700019F0282B2083089520952823FBCF2F922A
:102F80003F924F925F926F927F928F929F92AF92F9
:102F9000BF92CF92DF92EF92FF920F931F93CF9346
:102FA000DF93CDB7DEB728970FB6F894DEBF0FBE1C
:102FB000CDBF98878F837B016A011901841795071C
:102FC000A1F56B0113C031E0C31AD1080FC0C214C0
:102FD000D30494F0A801B6018F8198850E949917B7
:102FE000E214F30484F72FEFC21AD20AE214F304B6
:102FF00074F72C143D0474F728960FB6F894DEBFCE
:103000000FBECDBFDF91CF911F910F91FF90EF9039
:10301000DF90CF90BF90AF909F908F907F906F90F8
:103020005F904F903F902F9008956217730701F5BE
:10303000AF80B88414C021E0A21AB10810C0AC144B
:10304000BD04D4F2A801B701C5010E9499178F8170
:1030500098858C159D057CF79FEFA91AB90A8F8179
:1030600098858C159D055CF7CA14DB045CF7C4CF0A
:103070002F8138854217530754F48F2D7101262E66
:10308000382E9F81888558874F83C92ED82EC60138
:103090002F813885821B930B9C838B83C1018E19F2
:1030A0009F099A838983BC01990F880B990B0E9411
:1030B000141F4B015C012B813C81B901330F880B3C
:1030C000990B0E94141F9B01AC01C501B4010E9421
:1030D000791E2B013C0120E030E0A9010E94FD1F78
:1030E00087FF04C077FA709477F87094812C912C44
:1030F00054018A81881F8827881F282F30E03E834B
:103100002D838B819C81181619060CF057C02F81D6
:103110003885C216D3060CF46FCFA801B7018F8192
:1031200098850E949917A3019201C501B4010E94DC
:103130000E1E4B015C0120E030E040E05FE30E94A6
:10314000FD1F87FD08C089819A811816190674F43D
:103150002E143F0474F42B813C81121613063CF5A7
:103160008F819885019698878F83CBCFE214F304E3
:1031700094F3A801B7018F8198850E94991781E087
:1031800090E029813A811216130614F090E080E055
:103190002D813E81821B930BE80EF91E20E030E06A
:1031A00040E85FE3C501B4010E940D1EC2CF2F812C
:1031B00038852150310938872F83A3CF8F81988597
:1031C0008C159D050CF0A9CF17CF4F925F926F928F
:1031D0007F928F929F92AF92BF92CF92DF92EF92A7
:1031E000FF920F931F93CF93DF935B0139014052FE
:1031F000550B65E0649F9001659F300D1124A90176
:103200004B5E5D4F7A018C012C0155E0450E511C3F
:1032100088248394912CF701C4906114710409F4FB
:10322000C094D0E0C0E0D12CA4010C2E02C0440F09
:10323000551F0A94E2F74C215D210C2E02C05595D2
:1032400047950A94E2F7B5016C0F7D1FC8010E94F3
:1032500099172196C830D10539F74FEFE41AF40ACF
:103260000F5F1F4F04151505B1F6DF91CF911F9128
:103270000F91FF90EF90DF90CF90BF90AF909F9015
:103280008F907F906F905F904F900895CF92DF92D4
:10329000EF92FF920F931F93CF93DF937B018A01ED
:1032A0006901D82FC0E0F801EC0FF11D40814111F8
:1032B00009C0DF91CF911F910F91FF90EF90DF90A8
:1032C000CF9008959601B7018D2F90E00E94E518E8
:1032D000DB5FCF5FE8CF95B19F7D40E2849F900197
:1032E0001124922B95B95F9887E090E070E08F9859
:1032F0009B01082E02C0359527950A94E2F720FF1E
:1033000006C02E9A8F9A019790F75F9A08952E988B
:10331000F9CFCF93C82F579A249A259A269A879A3D
:103320002C985F9A2C9A61E280E00E946B196C2FB6
:10333000606880E00E946B1964E080E00E946B1975
:1033400063E180E00E946B196CE080E00E946B19E1
:1033500060E280E00E946B196CE080E00E946B19D3
:1033600060E480E00E946B1960E880E0CF910C94EB
:103370006B19CF93DF93C8EFD1E060E081E00E944A
:103380006B192197D1F7DF91CF910895CF93C82F73
:10339000606480E00E946B196C2F606880E0CF91C0
:1033A0000C946B19AF92BF92CF92EF920F931F9331
:1033B000FC014083518362837383048315832683D6
:1033C0003783E08AC18AB48AA38A81E0828B10861F
:1033D00011861286138614861586168617861F9107
:1033E0000F91EF90CF90BF90AF9008956F927F9222
:1033F0008F929F92AF92BF92CF92DF92EF92FF9205
:103400000F931F93CF93DF93EC018A89882309F4EC
:103410006EC0688179818A819B810E9464200E94AC
:10342000E11E5B01643571050CF061C06888712C88
:10343000660D771D161617060CF059C06C817D813C
:103440008E819F810E9464200E94E11E603371057D
:103450000CF04DC0298930E0260F371F12161306D5
:103460000CF045C027E0620E711C33E07594679440
:103470003A95E1F78B01912C812CD12CC12C8989B3
:103480008C151D04A1F19CF1F12CE12C23C0C70186
:1034900023E0959587952A95E1F7EB89FC89E80D5E
:1034A000F91DE80FF91F408150E0C7018095909504
:1034B0008770992702C0559547958A95E2F7417024
:1034C0005527B801C5018E0D9F1D0E9499178FEFDA
:1034D000E81AF80A88898E151F0409F0C4F62FEF40
:1034E000C21AD20A860C971C0F5F1F4FC8CFDF91FC
:1034F000CF911F910F91FF90EF90DF90CF90BF90F1
:10350000AF909F908F907F906F900895A1E1B0E071
:10351000ECE8FAE10C941E213C017F876E876A017A
:10352000FC0117821682838181FD03C06FEF7FEF5C
:103530006FC39E012F5F3F4F398B288BF30123818F
:10354000EE85FF8523FD859123FF8191FF87EE871F
:10355000882309F45AC3853251F4EE85FF8523FD93
:10356000859123FF8191FF87EE87853229F490E0D2
:10357000B3010E94B822E2CF982F10E0882499244A
:103580001032B0F49B3269F09C3228F4903251F042
:10359000933271F40BC09D3239F0903349F41160CD
:1035A00028C01260146025C0186023C0106121C0BB
:1035B00017FD2AC0892F80538A3078F416FF06C081
:1035C000FAE09F9E902C1124980E13C03AE0839E3F
:1035D000802C1124880E10620CC09E3221F416FD3E
:1035E00014C3106406C09C3611F4106802C09836EB
:1035F00059F4EE85FF8523FD959123FF9191FF8777
:10360000EE87992309F0BCCF892F8554833020F4AD
:10361000812F8061905E07C0892F8556833008F026
:103620009FC1812F8F7E86FD02C076E0972E6FE3CB
:10363000F62EF822953619F4F0E4FF2A07C09636E4
:1036400019F420E8F22A02C091109A94F7FE0AC0F9
:103650003BE3391518F45CE3B52E02C0B92CB394E2
:1036600027E009C047E0491520F4BB2447E0942E29
:10367000F7CF292DBB24C60104969D878C87F601C0
:103680006081718182819381AE014F5F5F4F0B2D0D
:103690000E94CA216C010981202E332400FF04C03E
:1036A00003FD02C01DE209C0F1FE02C01BE205C01D
:1036B000F2FC02C010E001C010E2C1018C709070F9
:1036C000892BB9F1112311F483E001C084E088153E
:1036D00010F088240AC0881AF3FC07C080E290E04A
:1036E000B3010E94B8228A94C9F7112329F0812FCF
:1036F00090E0B3010E94B82223FE03C005EF13E05F
:103700000EC009EF13E00BC0E114F10409F0805280
:1037100090E0B3010E94B8220F5F1F4F05C0EF2C4D
:10372000FF24F0E1EF22FF24F8018491882361F760
:1037300014C1F7FE12C0BC0C24FE04C08A81813380
:1037400009F4BA941B141CF0BB24B3942DC0F8E008
:10375000FB1550F538E0B32E27C0F6FC25C0892DA7
:1037600090E08C159D054CF02CEFC2162FEFD20681
:1037700024F030E8F32A01C09A94992049F0E2E05D
:10378000F0E0EC0FFD1FE90DF11D80818033A1F306
:10379000F7FE0AC0B92CB394892D90E0C816D9065B
:1037A00014F0992401C09C18F7FC03C025E030E018
:1037B00009C01C141D041CF021E030E003C0960178
:1037C0002F5F3F4F112311F02F5F3F4F992029F0BA
:1037D000892D90E00196280F391F882D90E0281739
:1037E000390714F0882401C0821A4F2C5524C201D5
:1037F00089709070892B39F008C080E290E0B301A5
:103800000E94B8228A948820C1F7112329F0812FC1
:1038100090E0B3010E94B82243FE07C008C080E3D5
:1038200090E0B3010E94B8228A948820C1F7F7FE85
:1038300046C08601D7FE02C000E010E07601089481
:10384000E11CF11CE01AF10A41E050E04C0F5D1F51
:10385000E40EF51E26014B185108892D90E0AA248C
:10386000BB24A81AB90A5FEF0F3F150729F48EE2AF
:1038700090E0B3010E94B822C016D10634F0401681
:1038800051061CF4F701808101C080E30150104013
:103890000894E11CF11C0A151B052CF090E0B30103
:1038A0000E94B822E0CF0C151D0539F49A81963399
:1038B00018F4953311F424FE81E390E04BC08A8123
:1038C000813309F00F7E90E0B3010E94B822992065
:1038D000A1F08EE290E0B3010E94B82212E0E1E094
:1038E000F0E0EC0FFD1FE10FF11D1F5F808190E004
:1038F000B3010E94B8229A9491F744FC03C085E674
:1039000090E002C085E490E0B3010E94B822D7FCA9
:1039100005C0C114D10441F404FF06C0D094C19481
:10392000D108D3948DE201C08BE290E0B3010E94F4
:10393000B82280E305C08F5F26EF3FEFC20ED31E93
:103940003AE0C316D104BCF790E0B3010E94B8225C
:10395000C601C096B3010E94B822CC84DD8452C156
:10396000933631F0933799F0933509F059C023C05D
:10397000F601808189835E010894A11CB11C22E0BC
:1039800030E0C20ED31E21E0E22EF12C12C0F6016F
:10399000A080B18016FD03C06FEF7FEF02C0692DDC
:1039A00070E022E030E0C20ED31EC5010E94AD22BD
:1039B0007C011F7713C0F601A080B18016FD03C003
:1039C0006FEF7FEF02C0692D70E022E030E0C20EA1
:1039D000D31EC5010E94A2227C01106813FF07C0FC
:1039E0001BC080E290E0B3010E94B8228A94882D27
:1039F00090E0E816F906A8F30FC0F50117FD8591D0
:103A000017FF81915F0190E0B3010E94B8228110FD
:103A10008A940894E108F108E114F10471F7F2C006
:103A2000943611F0993689F517FF08C0F601208108
:103A300031814281538184E090E00AC0F6018081A7
:103A400091819C01442737FD4095542F82E090E0FE
:103A5000C80ED91E9FE6F92EF12257FF09C05095D6
:103A60004095309521953F4F4F4F5F4F90E8F92A91
:103A7000CA01B901AE014F5F5F4F2AE030E00E94FA
:103A80003923E82EE889EE1A41C0953721F41F7ECC
:103A90002AE030E01CC0197F9F3661F0903720F497
:103AA000983509F0B2C00FC0903739F0983709F057
:103AB000ACC004C028E030E00AC0106114FD1460FE
:103AC00020E130E004C014FD166020E132E017FF71
:103AD00008C0F601608171818281938144E050E0E9
:103AE00008C0F60180819181BC0180E090E042E055
:103AF00050E0C40ED51EAE014F5F5F4F0E943923C8
:103B0000E82E5889E51A8FE7F82EF122F6FE0BC051
:103B10008EEFF822E91438F4F4FE07C0F2FC05C079
:103B20009FEEF92202C01E2D01C0192DF4FE0DC01A
:103B3000FE01EE0DF11D8081803319F4E9EEFE22C5
:103B400008C01F5FF2FE05C003C08F2D867809F004
:103B50001F5F0F2DF3FC14C0F0FE0FC0181510F0FE
:103B60009E2C0BC09E2C980C911A182D06C080E23A
:103B700090E0B3010E94B8221F5F1815C0F304C083
:103B8000181510F4811A01C0882404FF0FC080E3C7
:103B900090E0B3010E94B82202FF1DC001FD03C0E6
:103BA00088E790E00EC088E590E00BC0802F867813
:103BB00091F001FF02C08BE201C080E2F7FC8DE2D0
:103BC00090E0B3010E94B82206C080E390E0B30108
:103BD0000E94B8229A94E914C0F3EA94E1E0F0E07C
:103BE000EC0FFD1FEE0DF11D808190E0B3010E94EE
:103BF000B822EE2091F706C080E290E0B3010E9467
:103C0000B8228A948820C1F799CCF3016681778124
:103C1000CB016196E2E10C943A215058BB27AA27C8
:103C20000ED0A0C169D130F06ED120F031F49F3FA9
:103C300011F41EF45EC10EF4E095E7FB54C1E92FC8
:103C4000B3D180F3BA17620773078407950718F09A
:103C500071F49EF5CBC10EF4E0950B2EBA2FA02D7A
:103C60000B01B90190010C01CA01A0011124FF2729
:103C7000591B99F0593F50F4503E68F11A16F04024
:103C8000A22F232F342F4427585FF3CF4695379523
:103C90002795A795F0405395C9F77EF41F16BA0BE8
:103CA000620B730B840BBAF09150A1F0FF0FBB1F96
:103CB000661F771F881FC2F70EC0BA0F621F731FDF
:103CC000841F48F4879577956795B795F7959E3F3C
:103CD00008F0B3CF9395880F08F09927EE0F9795CA
:103CE00087950895DCD008F481E0089514D1E39518
:103CF0004AC10CD037C107D140F0FED030F021F4DA
:103D00005F3F19F0F0C0511172C1F3C04DD198F36B
:103D10009923C9F35523B1F3951B550BBB27AA274C
:103D200062177307840738F09F5F5F4F220F331FBE
:103D3000441FAA1FA9F333D00E2E3AF0E0E830D08A
:103D400091505040E695001CCAF729D0FE2F27D08D
:103D5000660F771F881FBB1F261737074807AB075B
:103D6000B0E809F0BB0B802DBF01FF2793585F4FD0
:103D70002AF09E3F510568F0B6C039C15F3FECF3B1
:103D8000983EDCF3869577956795B795F7959F5F95
:103D9000C9F7880F911D9695879597F90895E1E0E9
:103DA000660F771F881FBB1F621773078407BA0748
:103DB00020F0621B730B840BBA0BEE1F88F7E095A3
:103DC000089504D06894B11112C10895F5D088F017
:103DD0009F5790F0B92F9927B751A0F0D1F0660FF7
:103DE000771F881F991F1AF0BA95C9F712C0B13012
:103DF00081F0FCD0B1E00895F9C0672F782F8827B3
:103E0000B85F39F0B93FCCF3869577956795B39550
:103E1000D9F73EF490958095709561957F4F8F4FBF
:103E20009F4F0895E89409C097FB3EF490958095C4
:103E3000709561957F4F8F4F9F4F9923A9F0F92F70
:103E400096E9BB279395F695879577956795B795EE
:103E5000F111F8CFFAF4BB0F11F460FF1BC06F5FD4
:103E60007F4F8F4F9F4F16C0882311F096E911C0E6
:103E7000772321F09EE8872F762F05C0662371F007
:103E800096E8862F70E060E02AF09A95660F771F1B
:103E9000881FDAF7880F9695879597F90895990FF7
:103EA0000008550FAA0BE0E8FEEF16161706E80704
:103EB000F907C0F012161306E407F50798F0621B25
:103EC000730B840B950B39F40A2661F0232B242BFA
:103ED000252B21F408950A2609F4A140A6958FEF19
:103EE000811D811D089597F99F6780E870E060E06B
:103EF00008959FEF80EC089500240A941616170683
:103F000018060906089500240A94121613061406CA
:103F100005060895EECF50D0E8F3E894E0E0BB2723
:103F20009F57F0F02AED3FE049EC06C0EE0FBB0FC3
:103F3000661F771F881F28F0B23A6207730784074D
:103F400028F0B25A620B730B840BE3959A9572F7C3
:103F5000803830F49A95BB0F661F771F881FD2F701
:103F60009048F5C0092E0394000C11F4882352F0F8
:103F7000BB0F40F4BF2B11F460FF04C06F5F7F4F95
:103F80008F4F9F4F0895EF93E0FF06C0A2EA2AEDFE
:103F90003FE049EC5FEB53DEE5DF0F90039401FC5B
:103FA0009058EEE2F1E0DFC057FD9058440F551FE6
:103FB00059F05F3F71F04795880F97FB991F61F0AB
:103FC0009F3F79F087950895121613061406551F22
:103FD000F2CF4695F1DF08C0161617061806991F8E
:103FE000F1CF86957105610508940895E894BB2783
:103FF00066277727CB0197F9089551DF08F48FEFF3
:1040000008950BD0AFCF78DF28F07DDF18F095232F
:1040100009F069CF6ECF1124EACFC6DFA0F3959FD8
:10402000D1F3950F50E0551F629FF001729FBB279F
:10403000F00DB11D639FAA27F00DB11DAA1F649F4B
:104040006627B00DA11D661F829F2227B00DA11DFE
:10405000621F739FB00DA11D621F839FA00D611D84
:10406000221F749F3327A00D611D231F849F600DA5
:10407000211D822F762F6A2F11249F5750408AF0DE
:10408000E1F088234AF0EE0FFF1FBB1F661F771F6A
:10409000881F91505040A9F79E3F510570F023CFE3
:1040A000A6CF5F3FECF3983EDCF386957795679556
:1040B000B795F795E7959F5FC1F7FE2B880F911D88
:1040C0009695879597F9089577DFE0F09E37D8F0B9
:1040D0009639B8F49E3848F4672F782F8827985F70
:1040E000F9CF86957795679593959539D0F3B62F47
:1040F000B1706B0F711D811D20F4879577956795C1
:10410000939508C022C073CF9F9305DF0F9007FCE3
:10411000EE5F39CF882371F4772321F09850872BF5
:10412000762F07C0662311F499270DC09051862B76
:1041300070E060E02AF09A95660F771F881FDAF723
:10414000880F9695879597F908959F3F31F0915084
:1041500020F4879577956795B795880F911D96956B
:10416000879597F908959F938F937F936F93FF930C
:10417000EF939B01AC0145DFEF91FF9105D02F91AB
:104180003F914F915F913DCFDF93CF931F930F935B
:10419000FF92EF92DF927B018C01689405C0DA2ECA
:1041A000EF013BDFFE01E894A59125913591459102
:1041B0005591AEF3EF0143DDFE019701A801DA94BA
:1041C00079F7DF90EF90FF900F911F91CF91DF91E2
:1041D000089597FB092E07260AD077FD04D065D0F5
:1041E00006D000201AF4709561957F4F0895F6F778
:1041F000909581959F4F0895A1E21A2EAA1BBB1B93
:10420000FD010DC0AA1FBB1FEE1FFF1FA217B307A2
:10421000E407F50720F0A21BB30BE40BF50B661FB8
:10422000771F881F991F1A9469F76095709580957C
:1042300090959B01AC01BD01CF0108952F923F9253
:104240004F925F926F927F928F929F92AF92BF92A6
:10425000CF92DF92EF92FF920F931F93CF93DF9352
:10426000CDB7DEB7CA1BDB0B0FB6F894DEBF0FBEAF
:10427000CDBF09942A88398848885F846E847D84FC
:104280008C849B84AA84B984C884DF80EE80FD80FE
:104290000C811B81AA81B981CE0FD11D0FB6F89474
:1042A000DEBF0FBECDBFED010895AA1BBB1B51E1C0
:1042B00007C0AA1FBB1FA617B70710F0A61BB70B96
:1042C000881F991F5A95A9F780959095BC01CD013B
:1042D0000895A0E0B0E0EFE6F1E20C942621EC01B5
:1042E000A880B980CA80DB80A114B104C104D104C4
:1042F00041F484E2A82E89EDB82E8BE5C82E87E024
:10430000D82EC601B5012DE133EF41E050E00E9407
:10431000B62327EA31E440E050E00E9497237B0176
:104320008C01C601B5012DE133EF41E050E00E9460
:10433000B623CA01B9012CEE34EF4FEF5FEF0E94B4
:1043400097236E0D7F1D801F911F97FF04C0615042
:10435000704080409048688379838A839B839B0167
:104360003F77C901CDB7DEB7EAE00C9442210E9445
:104370006921089586EB91E00E9469210895A0E0EB
:10438000B0E08093B6019093B701A093B801B093C9
:10439000B9010895283008F027E03327DA01990F92
:1043A000311D87FD916000966105710539F4326019
:1043B0002E5F3D9330E32A95E1F708959F3F30F05B
:1043C00080387105610509F03C5F3C5F3D93913099
:1043D00008F08068911DDF93CF931F930F93FF9296
:1043E000EF92192F987F9695E92F96959695E90F5C
:1043F000FF27E95AFB4F99273327EE24FF24A70113
:10440000E70105900894079428F4360FE71EF81E7C
:10441000491F511D660F771F881F991F0694A1F72A
:104420000590079428F4E70EF81E491F561FC11D7A
:10443000770F881F991F661F0694A1F705900794B0
:1044400028F4F80E491F561FC71FD11D880F991F4A
:10445000661F771F0694A1F70590079420F4490F73
:10446000561FC71FD81F990F661F771F881F0694F6
:10447000A9F784911095177041F0D695C795579577
:104480004795F794E7941A95C1F7EDEFF3E0689438
:104490001590159135916591959105907FE27395F1
:1044A000E118F10A430B560BC90BD009C0F7E10C18
:1044B000F11E431F561FC91FD01D7EF4703311F427
:1044C0008A95E6CFE894015030F0080F0AF40027EF
:1044D000021708F4202F2395022F7A3328F079E36E
:1044E0007D932A95E9F710C07D932A9589F6069465
:1044F00097956795379517951794E118F10A430B2F
:10450000560BC90BD00998F023957E9173957A3399
:1045100008F070E37C932013B8F77E9170617D936F
:1045200030F0839571E37D9370E32A95E1F71124D0
:10453000EF90FF900F911F91CF91DF91992787FD09
:1045400090950895FC010590615070400110D8F7D6
:10455000809590958E0F9F1F0895FC0161507040CB
:1045600001900110D8F7809590958E0F9F1F0895A8
:104570000F931F93CF93DF938C01EB018B8181FF0E
:104580001BC082FF0DC02E813F818C819D81281729
:10459000390764F4E881F9810193F983E88306C05F
:1045A000E885F985802F0995892B31F48E819F81CB
:1045B00001969F838E8302C00FEF1FEFC801DF912A
:1045C000CF911F910F910895AEE0B0E0EAEEF2E2D4
:1045D0000C942C210D891E898F89988D97FF02C01C
:1045E00080E090E801979E838D831A83098386E09B
:1045F0008C839E01255E3F4FCE010196698D7A8D99
:10460000A9010E94861A4D815E8157FD0AC02F8143
:104610003885421753070CF49A01020F131FF80153
:1046200010822E96E4E00C944821AEE0B0E0EBE17D
:10463000F3E20C942C210D891E8986E08C831A8369
:1046400009838FEF9FE79E838D839E01275E3F4FF7
:10465000CE0101966F89788DA9010E94861A2F815B
:104660003885020F131FF80110822E96E4E00C9497
:104670004821FA01AA27283051F1203181F1E8942C
:104680006F936E7F6E5F7F4F8F4F9F4FAF4FB1E045
:104690003ED0B4E03CD0670F781F891F9A1FA11D40
:1046A000680F791F8A1F911DA11D6A0F711D811D41
:1046B000911DA11D20D009F468943F912AE0269F06
:1046C00011243019305D3193DEF6CF010895462F65
:1046D0004770405D4193B3E00FD0C9F7F6CF462F46
:1046E0004F70405D4A3318F0495D31FD40524193AF
:1046F00002D0A9F7EACFB4E0A6959795879577956C
:104700006795BA95C9F700976105710508959B01F2
:10471000AC010A2E06945795479537952795BA957B
:10472000C9F7620F731F841F951FA01D0895629F14
:10473000D001739FF001829FE00DF11D649FE00D99
:10474000F11D929FF00D839FF00D749FF00D659FFA
:10475000F00D9927729FB00DE11DF91F639FB00DF9
:10476000E11DF91FBD01CF011124089597FB092E0A
:1047700005260ED057FD04D03FDD0AD0001C38F4CA
:1047800050954095309521953F4F4F4F5F4F08957D
:10479000F6F790958095709561957F4F8F4F9F4F5D
:0647A0000895F894FFCF1C
:1047A6004C697665733A20253032640053636F7224
:1047B600653A20253032640054696D653A0025302B
:1047C60032643A25303264005A6F6D6269653A2068
:1047D6002530326400466F6F643A2025303264001B
:1047E6004E6963686F6C61730044656D70736579BB
:1047F600006E313032323433373800256400256696
:104806000047616D65204F766572210047616D65D1
:1048160020537461727420002C20000A00010001EC
:104826000500540030000400C66C386CC6183C5AAB
:104836002844FFF0FFF0AA805540002050200000D9
:104846005020500060183C3C00183C3C18180100F1
:0A485600E10000000008010000006E
:00000001FF
