:100000000C946D020C948A020C948A020C948A025D
:100010000C948A020C948A020C948A020C948A0230
:100020000C948A020C948A020C949E060C94D906B5
:100030000C948A020C948A020C948A020C948A0210
:100040000C948A020C948A020C948A020C948A0200
:100050000C948A020C948A020C948A020C948A02F0
:100060000C948A020C948A020C948A020C948A02E0
:100070000C948A020C948A020C948A020C948A02D0
:100080000C948A020C948A020C948A020C949702B3
:100090000C948A020C948A020C948A020C948A02B0
:1000A0000C948A020C948A020C948A02330630065D
:1000B0002D062A062706240621061E061B061806FC
:1000C000150612060F060C060906060603060006AC
:1000D000FD05FA05F705F405F105EE05EB05E80564
:1000E000E505E205DF05DC05D905D605D305D00514
:1000F000CD05CA05C705C405C105BE05BB05B805C4
:10010000B505B205AF05AC05A905A605A305A00573
:100110009D059A059705940591058E058B05880523
:10012000850582057F057C05790576057305000147
:10013000000062011200020000740143000300008D
:10014000B7010401030904BB011402030904D1012E
:100150001603030904E9010C0001C11201803601F4
:1001600081361201000202000010C0167A0400015C
:100170000102030109024300020100C03209040028
:100180000001020201000524001001052401010103
:10019000042402060524060001070582031000401E
:1001A00009040100020A00000007050302400000E4
:1001B0000705840240000004030904140359006F7A
:1001C000007500720020004E0061006D00650000A7
:1001D00000160355005300420020005300650072D2
:1001E00000690061006C0000000C03310032003334
:1001F00000340035000000000000000000005F0037
:10020000000007000700147F147F14242A7F2A129D
:10021000231308646236495522500005030000008C
:100220001C2241000041221C0014083E081408084A
:100230003E08080050300000080808080800606008
:10024000000020100804023E5149453E00427F4014
:100250000042615149462141454B311814127F102B
:1002600027454545393C4A4949300171090503365E
:1002700049494936064949291E00363600000056CC
:1002800036000008142241001414141414004122F2
:1002900014080201510906324979413E7E111111BB
:1002A0007E7F494949363E414141227F4141221CDE
:1002B0007F494949417F090909013E4149497A7FFE
:1002C0000808087F00417F41002040413F017F082E
:1002D0001422417F404040407F020C027F7F04088F
:1002E000107F3E4141413E7F090909063E415121AF
:1002F0005E7F09192946464949493101017F0101BB
:100300003F4040403F1F2040201F3F4038403F6358
:100310001408146307087008076151494543007FBA
:1003200041410002040810200041417F0004020105
:100330000204404040404000010204002054545454
:10034000787F484444383844444420384444487F03
:100350003854545418087E0901020C5252523E7F00
:100360000804047800447D40002040443D007F1094
:1003700028440000417F40007C041804787C080475
:10038000047838444444387C1414140808141418AD
:100390007C7C080404084854545420043F44402002
:1003A0003C4040207C1C2040201C3C4030403C44D1
:1003B000281028440C5050503C4464544C440008CD
:1003C00036410000007F0000004136080010080898
:1003D000100878464146786E616E00696E660000CE
:1003E000407A10F35A00A0724E18090010A5D4E804
:1003F0000000E87648170000E40B54020000CA9A97
:100400003B000000E1F505000080969800000040E8
:10041000420F000000A0860100000010270000002D
:1004200000E803000000006400000000000A000073
:100430000000000100000000002C76D888DC674F27
:100440000823DFC1DFAE59E1B1B796E5E3E453C657
:100450003AE651997696E8E6C28426EB898C9B624F
:10046000ED407C6FFCEFBC9C9F40F2BAA56FA5F4F9
:1004700090055A2AF75C936B6CF9676DC11BFCE021
:10048000E40D47FEF520E6B500D0ED902E03009474
:100490003577050080841E080000204E0A00000009
:1004A000C80C333333330F986E12831141EF8D2113
:1004B00014893BE65516CFFEE6DB18D1844B381B7A
:1004C000F77C1D901DA4BBE424203284725E22813F
:1004D00000C9F124ECA1E53D270011241FBECFEF98
:1004E000DAE0DEBFCDBF11E0A0E0B1E0E0E9F7E285
:1004F00002C005900D92A433B107D9F713E0A4E32D
:10050000B1E001C01D92A136B107E1F70E94480495
:100510000C94C6130C94000016BC1092900083E05B
:100520008093910081E080937100789408951F92E8
:100530000F920FB60F9211248F939F93AF93BF9397
:100540008091340190913501A0913601B09137012D
:100550000196A11DB11D8093340190933501A093A4
:100560003601B0933701BF91AF919F918F910F905A
:100570000FBE0F901F901895AF92BF92CF92DF924F
:10058000EF92FF920F931F936091340170913501A8
:100590008091360190913701E0909400F0909500A1
:1005A0000E94D10F20E030E040E857E40E94631041
:1005B0005B016C0100E010E0C801B7010E94D10F9F
:1005C0009B01AC01C601B5010E94D40E20E030E0D1
:1005D00040E852E40E94631020E034E244EF5AE421
:1005E0000E94380F1F910F91FF90EF90DF90CF90F6
:1005F000BF90AF90089583B1869580FF16C060913B
:100600003F0170914001809141019091420120E0B1
:1006100030E040E85FE30E94D40E60933F017093A6
:10062000400180934101909342010895869851982A
:1006300027982198509820980895609143017091CF
:100640004401809145019091460120E030E040E472
:100650005FE30E94D40E6093430170934401809342
:1006600045019093460108958FB1829586958695B0
:10067000837080FF04C081E08093380108958091E9
:1006800016019091170162E070E00E9433119B0106
:10069000809118019091190162E070E00E9433117D
:1006A0006A507040C9014C9740E051E021E00E943F
:1006B0000C0A809116019091170162E070E00E948F
:1006C00033119B01809118019091190162E070E053
:1006D0000E943311C90146974CE051E021E00E948D
:1006E0000C0A0E94440808954F925F926F927F9285
:1006F0008F929F92AF92BF92CF92DF92EF92FF9232
:100700000F931F93CF93DF93B2E08B2E912C2DC0CC
:10071000C301B2010E94D30F6B017C01BE01882787
:1007200077FD8095982F0E94D30F8B019C0184E563
:1007300091E0B701A601AAE0EA2EFCE4CF2EE1E2A7
:10074000AE2EE1E0BE2E0E94980A2C9684E591E040
:100750000E94BC0AC033D105D9F68AE488169104F8
:1007600061F08CE090E0880E991ECCE0D0E024018E
:10077000662457FC6094762CCBCFDF91CF911F91EC
:100780000F91FF90EF90DF90CF90BF90AF909F9030
:100790008F907F906F905F904F900895E1E6F0E02A
:1007A00080E8808381E080838FE30E944F0A0E946B
:1007B00016030E9474030E9444080895AF92BF92EA
:1007C000CF92EF920F931F936091160170911701D2
:1007D00069507040882777FD8095982F0E94D30F2D
:1007E000AB01BC018FE391E000E010E020EA30E4CF
:1007F000A6E0EA2EF5E0CF2EECE1AE2EE1E0BE2E33
:100800000E94980A1F910F91EF90CF90BF90AF90E8
:1008100008950E94DE030E94740308950E94090453
:10082000609143017091440180914501909146018E
:1008300020E030E040E45FE30E94D40E6093430187
:100840007093440180934501909346010E94FB02FE
:100850008FE391E00E94BC0A08950EC00E94BC0282
:100860000E94A50FDC01CB010E94E7110E945708EE
:100870000E940E040E94440880913801882371F779
:1008800008950E9457080E9434030E942D04089581
:10089000CF93DF930E94CE03C0E2DEE40E944104C6
:1008A000CE010197F1F7FACF81E08093D70080EA7B
:1008B0008093D80082E189BD09B400FEFDCF80E9B4
:1008C0008093D8001092E00010923B0110923C01FE
:1008D0008CE08093E2007894089580913B01089524
:1008E0002FB7F89480913B01882369F083E08093CF
:1008F000E9009BE68091E80085FD09C082FF03C006
:100900009093E800F7CF2FBF2FEF3FEF0CC09091EF
:10091000F1008091E80085FD03C08BE68093E8003C
:100920002FBF292F30E0C90108952FB7F894809187
:100930003B01882311F490E010C083E08093E9002C
:100940009091F200992349F48091E80082FF05C05C
:1009500085FD03C08BE68093E8002FBF892F0895A3
:1009600080913B01882371F09FB7F89483E08093D6
:10097000E9002BE602C02093E8008091E80085FDA5
:10098000FACF9FBF0895482F80913B018823D9F16A
:100990002FB7F89484E08093E90080913E0188238A
:1009A00041F08091E80085FD02C02FBF12C0109277
:1009B0003E019091E400975E34E08091E80085FD6F
:1009C00013C02FBF8091E400891729F481E0809340
:1009D0003E018FEF089580913B018823A1F02FB74E
:1009E000F8943093E900E9CF4093F1008091E8005A
:1009F00085FD03C08AE38093E80085E080933D0194
:100A00002FBF80E008958FEF0895282F80913B013C
:100A1000882351F09FB7F89484E08093E900809197
:100A2000E80085FD03C09FBF8FEF08952093F1007C
:100A30008091E80085FD03C08AE38093E80085E0AB
:100A400080933D019FBF80E00895CF93DF93EC0139
:100A500080913B01882309F41CC13FB7F89484E0DE
:100A60008093E90080913E01882309F408C18091B8
:100A7000E80085FD02C03FBF0CC110923E01FFC0DF
:100A80009091E400975E8091E80085FD13C03FBF20
:100A90008091E400891721F481E080933E01F9C040
:100AA00080913B01882309F4F4C03FB7F894B093D8
:100AB000E900E9CF8091F200242F281B822F90E0DB
:100AC0006817790708F4262F822F90E0813491056A
:100AD00008F0C6C08A5A9F4FFC01EE0FFF1F059019
:100AE000F491E02D099489918093F100899180938C
:100AF000F10089918093F10089918093F1008991AF
:100B00008093F10089918093F10089918093F100A5
:100B100089918093F10089918093F100899180936C
:100B2000F10089918093F10089918093F10089917E
:100B30008093F10089918093F10089918093F10075
:100B400089918093F10089918093F100899180933C
:100B5000F10089918093F10089918093F10089914E
:100B60008093F10089918093F10089918093F10045
:100B700089918093F10089918093F100899180930C
:100B8000F10089918093F10089918093F10089911E
:100B90008093F10089918093F10089918093F10015
:100BA00089918093F10089918093F10089918093DC
:100BB000F10089918093F10089918093F1008991EE
:100BC0008093F10089918093F10089918093F100E5
:100BD00089918093F10089918093F10089918093AC
:100BE000F10089918093F10089918093F1008991BE
:100BF0008093F10089918093F10089918093F100B5
:100C000089918093F10089918093F100899180937B
:100C1000F10089918093F10089918093F10089918D
:100C20008093F10089918093F10089918093F10084
:100C300089918093F10089918093F100899180934B
:100C4000F10089918093F10089918093F10089915D
:100C50008093F10089918093F10089918093F10054
:100C600089918093F1008091E80085FD02C0509346
:100C7000E800621B7109A0933D013FBF04C0B4E0CE
:100C800040E45AE3A5E06115710509F0F9CE80E072
:100C900001C08FEFDF91CF9108959FB7F8948091B5
:100CA0003D01882341F084E08093E9008AE380934A
:100CB000E80010923D019FBF089560912901709155
:100CC0002A0180912B0190912C01089580912D0192
:100CD000089580912E01089580912F0108958091AB
:100CE0003C010895282F9FB7F89480913B018823F9
:100CF00039F082E08093E9008091E80085FD03C02F
:100D00009FBF8FEF089581EA8093F10080E2809386
:100D1000F1001092F1001092F1001092F100109287
:100D2000F10081E08093F1001092F1002093F10036
:100D30008AE38093E8009FBF80E008951F920F929E
:100D40000FB60F9211248F939F938091E100109220
:100D5000E100982F83FF11C01092E90081E0809399
:100D6000EB001092EC0082E18093ED0088E080932C
:100D7000F00010923B0110923C0192FF13C0809151
:100D80003B01882379F080913D01882359F08150FF
:100D900080933D01882331F484E08093E9008AE365
:100DA0008093E8009F918F910F900FBE0F901F903E
:100DB00018951F920F920FB60F9211240F931F9345
:100DC0002F933F934F935F936F937F938F939F9353
:100DD000AF93BF93EF93FF931092E9008091E800E7
:100DE00083FF3CC14091F1003091F1008091F1000E
:100DF000682F70E02091F100922F80E0682B792B12
:100E00008091F100A82FB0E02091F100922F80E0B6
:100E1000A82BB92B1091F1000091F10082EF809383
:100E2000E800363009F05AC025E331E0A901455009
:100E30005040F9013797859194918617970701F5EE
:100E4000FA01859194918A179B07D1F49A012E5F3C
:100E50003F4FF901659174912E5F3F4FF901449125
:100E6000212F30E0902F80E0282B392B2F3F3105A8
:100E700019F010F02FEF30E0241758F4422F09C07A
:100E8000295F3F4F495F5F4FF1E02F353F0789F6FC
:100E9000E5C05EEF8091E800282F30E0C901857041
:100EA0009070892BB9F322FDDCC0342F413108F05A
:100EB00030E1232FCB0106C0FC010196E491E093C1
:100EC000F10021502223C1F7630F711D431B509382
:100ED000E8004423F9F63031E9F2C3C0353061F45B
:100EE0008EEF8093E8008091E80080FFFCCF862F92
:100EF00080688093E300B5C0393051F5442309F090
:100F0000ADC060933B0110923C0110923D018EEF09
:100F10008093E80088E591E021E02093E900FC015E
:100F20000196E491E093EB00EE2369F0AC014F5F92
:100F30005F4FFC0184918093EC00CA010196FA0195
:100F400034913093ED002F5F253039F78EE181C069
:100F5000383061F4403809F081C08091E80080FFAA
:100F6000FCCF80913B018093F10050C0313289F475
:100F7000413A09F073C08091E80080FFFCCFE9E2BC
:100F8000F1E081918093F10081E0E033F807C9F747
:100F90003DC03032A1F4413209F060C08091E800D8
:100FA00082FFFCCFE9E2F1E08091F100819381E0E2
:100FB000E033F807C9F78BEF8093E80027C032329F
:100FC00051F4413209F04AC060933C018091E8003D
:100FD00080FFFCCF1BC03323E9F48091E80080FF41
:100FE000FCCF423811F080E00DC0A093E900809161
:100FF000EB0090E025E0969587952A95E1F78170C2
:101000001092E9008093F1001092F1008EEF80932E
:10101000E80027C0313011F0333001F54230F1F4EF
:10102000672BE1F42A2F2F77822F81508430B0F480
:101030008EEF8093E8002093E900333079F089E166
:101040008093EB0081E090E002C0880F991F2A9501
:10105000E2F78093EA001092EA0003C081E28093F5
:10106000EB00FF91EF91BF91AF919F918F917F9195
:101070006F915F914F913F912F911F910F910F9021
:101080000FBE0F901F901895CF93DF9360E080E024
:101090000E948C0AC9E6D1E0699181E00E94310A80
:1010A00083E0C136D807C1F7DF91CF910895E9E613
:1010B000F1E0119283E0E136F807D9F7089584351D
:1010C0009105F8F460337105E0F49B0173E0359508
:1010D00027957A95E1F774E5729FF001739FF00D03
:1010E0001124E80FF91FE759FE4F8081677021E056
:1010F00030E001C0220F6A95EAF7452B19F0282B42
:101100002083089520952823FBCF2F923F924F9262
:101110005F926F927F928F929F92AF92BF92CF9287
:10112000DF92EF92FF920F931F93CF93DF93CDB790
:10113000DEB728970FB6F894DEBF0FBECDBF9887F5
:101140008F837B016A01190184179507A1F56B0153
:1011500013C031E0C31AD1080FC0C214D30494F0F5
:10116000A801B6018F8198850E945F08E214F304FC
:1011700084F72FEFC21AD20AE214F30474F72C1486
:101180003D0474F728960FB6F894DEBF0FBECDBFAE
:10119000DF91CF911F910F91FF90EF90DF90CF9053
:1011A000BF90AF909F908F907F906F905F904F9087
:1011B0003F902F9008956217730701F5AF80B884B0
:1011C00014C021E0A21AB10810C0AC14BD04D4F2BE
:1011D000A801B701C5010E945F088F8198858C1511
:1011E0009D057CF79FEFA91AB90A8F8198858C1508
:1011F0009D055CF7CA14DB045CF7C4CF2F813885EA
:101200004217530754F48F2D7101262E382E9F81DB
:10121000888558874F83C92ED82EC6012F813885DF
:10122000821B930B9C838B83C1018E199F099A8328
:101230008983BC01990F880B990B0E94D30F4B0136
:101240005C012B813C81B901330F880B990B0E9403
:10125000D30F9B01AC01C501B4010E94380F2B01D3
:101260003C0120E030E0A9010E945F1087FF04C02C
:1012700077FA709477F87094812C912C54018A81BC
:10128000881F8827881F282F30E03E832D838B817D
:101290009C81181619060CF057C02F813885C2168C
:1012A000D3060CF46FCFA801B7018F8198850E94F7
:1012B0005F08A3019201C501B4010E94D40E4B0145
:1012C0005C0120E030E040E05FE30E945F1087FDBA
:1012D00008C089819A811816190674F42E143F04E7
:1012E00074F42B813C81121613063CF58F8198858E
:1012F000019698878F83CBCFE214F30494F3A8016F
:10130000B7018F8198850E945F0881E090E0298174
:101310003A811216130614F090E080E02D813E8190
:10132000821B930BE80EF91E20E030E040E85FE3FB
:10133000C501B4010E94D30EC2CF2F813885215040
:10134000310938872F83A3CF8F8198858C159D0510
:101350000CF0A9CF17CF4F925F926F927F928F922E
:101360009F92AF92BF92CF92DF92EF92FF920F9334
:101370001F93CF93DF935B0139014052550B65E01A
:10138000649F9001659F300D1124A90149505E4F63
:101390007A018C012C0155E0450E511C8824839460
:1013A000912CF701C4906114710409F4C094D0E049
:1013B000C0E0D12CA4010C2E02C0440F551F0A948A
:1013C000E2F74C215D210C2E02C0559547950A94F9
:1013D000E2F7B5016C0F7D1FC8010E945F082196DE
:1013E000C830D10539F74FEFE41AF40A0F5F1F4FE9
:1013F00004151505B1F6DF91CF911F910F91FF9064
:10140000EF90DF90CF90BF90AF909F908F907F90A4
:101410006F905F904F900895CF92DF92EF92FF927E
:101420000F931F93CF93DF937B018A016901D82F1C
:10143000C0E0F801EC0FF11D4081411109C0DF91BE
:10144000CF911F910F91FF90EF90DF90CF90089573
:101450009601B7018D2F90E00E94AB09DB5FCF5F53
:10146000E8CF95B19F7D40E2849F90011124922B9B
:1014700095B95F9887E090E070E08F989B01082E07
:1014800002C0359527950A94E2F720FF06C02E9AF0
:101490008F9A019790F75F9A08952E98F9CFCF937E
:1014A000C82F579A249A259A269A879A2C985F9A39
:1014B0002C9A61E280E00E94310A6C2F606880E023
:1014C0000E94310A64E080E00E94310A63E180E01A
:1014D0000E94310A6CE080E00E94310A60E280E004
:1014E0000E94310A6CE080E00E94310A60E480E0F2
:1014F0000E94310A60E880E0CF910C94310ACF93CA
:10150000DF93C8EFD1E060E081E00E94310A2197CB
:10151000D1F7DF91CF910895CF93C82F606480E019
:101520000E94310A6C2F606880E0CF910C94310AE0
:10153000AF92BF92CF92EF920F931F93FC01408323
:101540005183628373830483158326833783E08A00
:10155000C18AB48AA38A81E0828B108611861286A2
:10156000138614861586168617861F910F91EF90A5
:10157000CF90BF90AF9008956F927F928F929F927D
:10158000AF92BF92CF92DF92EF92FF920F931F9391
:10159000CF93DF93EC018A89882309F46EC06881B8
:1015A00079818A819B810E94C6100E94A00F5B01F5
:1015B000643571050CF061C06888712C660D771D6B
:1015C000161617060CF059C06C817D818E819F81A3
:1015D0000E94C6100E94A00F603371050CF04DC030
:1015E000298930E0260F371F121613060CF045C06C
:1015F00027E0620E711C33E0759467943A95E1F729
:101600008B01912C812CD12CC12C89898C151D0426
:10161000A1F19CF1F12CE12C23C0C70123E09595A9
:1016200087952A95E1F7EB89FC89E80DF91DE80F0C
:10163000F91F408150E0C7018095909587709927E8
:1016400002C0559547958A95E2F741705527B80134
:10165000C5018E0D9F1D0E945F088FEFE81AF80AE2
:1016600088898E151F0409F0C4F62FEFC21AD20A1A
:10167000860C971C0F5F1F4FC8CFDF91CF911F9132
:101680000F91FF90EF90DF90CF90BF90AF909F9021
:101690008F907F906F900895A1E1B0E0E2E5FBE0CC
:1016A0000C9446113C017F876E876A01FC0117820A
:1016B0001682838181FD03C06FEF7FEF6FC39E01B0
:1016C0002F5F3F4F398B288BF3012381EE85FF85F8
:1016D00023FD859123FF8191FF87EE87882309F4FD
:1016E0005AC3853251F4EE85FF8523FD859123FF92
:1016F0008191FF87EE87853229F490E0B3010E9443
:10170000E012E2CF982F10E0882499241032B0F430
:101710009B3269F09C3228F4903251F0933271F48C
:101720000BC09D3239F0903349F4116028C012602B
:10173000146025C0186023C0106121C017FD2AC0A5
:10174000892F80538A3078F416FF06C0FAE09F9EF6
:10175000902C1124980E13C03AE0839E802C112403
:10176000880E10620CC09E3221F416FD14C3106462
:1017700006C09C3611F4106802C0983659F4EE8504
:10178000FF8523FD959123FF9191FF87EE87992394
:1017900009F0BCCF892F8554833020F4812F8061DC
:1017A000905E07C0892F8556833008F09FC1812F36
:1017B0008F7E86FD02C076E0972E6FE3F62EF8222C
:1017C000953619F4F0E4FF2A07C0963619F420E89C
:1017D000F22A02C091109A94F7FE0AC03BE3391531
:1017E00018F45CE3B52E02C0B92CB39427E009C00D
:1017F00047E0491520F4BB2447E0942EF7CF292D6C
:10180000BB24C60104969D878C87F6016081718197
:1018100082819381AE014F5F5F4F0B2D0E94F211C9
:101820006C010981202E332400FF04C003FD02C097
:101830001DE209C0F1FE02C01BE205C0F2FC02C0BD
:1018400010E001C010E2C1018C709070892BB9F1D9
:10185000112311F483E001C084E0881510F088247E
:101860000AC0881AF3FC07C080E290E0B3010E942E
:10187000E0128A94C9F7112329F0812F90E0B30177
:101880000E94E01223FE03C007ED13E00EC00BED33
:1018900013E00BC0E114F10409F0805290E0B301B1
:1018A0000E94E0120F5F1F4F05C0EF2CFF24F0E1F4
:1018B000EF22FF24F8018491882361F714C1F7FE19
:1018C00012C0BC0C24FE04C08A81813309F4BA948E
:1018D0001B141CF0BB24B3942DC0F8E0FB1550F58D
:1018E00038E0B32E27C0F6FC25C0892D90E08C157A
:1018F0009D054CF02CEFC2162FEFD20624F030E8F5
:10190000F32A01C09A94992049F0E2E0F0E0EC0F4C
:10191000FD1FE90DF11D80818033A1F3F7FE0AC0A0
:10192000B92CB394892D90E0C816D90614F09924E7
:1019300001C09C18F7FC03C025E030E009C01C146E
:101940001D041CF021E030E003C096012F5F3F4FE3
:10195000112311F02F5F3F4F992029F0892D90E03E
:101960000196280F391F882D90E02817390714F0A9
:10197000882401C0821A4F2C5524C20189709070AE
:10198000892B39F008C080E290E0B3010E94E01298
:101990008A948820C1F7112329F0812F90E0B301A8
:1019A0000E94E01243FE07C008C080E390E0B3014C
:1019B0000E94E0128A948820C1F7F7FE46C0860193
:1019C000D7FE02C000E010E076010894E11CF11C93
:1019D000E01AF10A41E050E04C0F5D1FE40EF51EE5
:1019E00026014B185108892D90E0AA24BB24A81A7F
:1019F000B90A5FEF0F3F150729F48EE290E0B301BB
:101A00000E94E012C016D10634F0401651061CF4B4
:101A1000F701808101C080E3015010400894E11C6F
:101A2000F11C0A151B052CF090E0B3010E94E01296
:101A3000E0CF0C151D0539F49A81963318F49533CF
:101A400011F424FE81E390E04BC08A81813309F0D8
:101A50000F7E90E0B3010E94E0129920A1F08EE287
:101A600090E0B3010E94E01212E0E1E0F0E0EC0F40
:101A7000FD1FE10FF11D1F5F808190E0B3010E9407
:101A8000E0129A9491F744FC03C085E690E002C00E
:101A900085E490E0B3010E94E012D7FC05C0C114B8
:101AA000D10441F404FF06C0D094C194D108D3946A
:101AB0008DE201C08BE290E0B3010E94E01280E36E
:101AC00005C08F5F26EF3FEFC20ED31E3AE0C3166C
:101AD000D104BCF790E0B3010E94E012C601C096A9
:101AE000B3010E94E012CC84DD8452C1933631F000
:101AF000933799F0933509F059C023C0F6018081DE
:101B000089835E010894A11CB11C22E030E0C20E62
:101B1000D31E21E0E22EF12C12C0F601A080B1808C
:101B200016FD03C06FEF7FEF02C0692D70E022E069
:101B300030E0C20ED31EC5010E94D5127C011F7772
:101B400013C0F601A080B18016FD03C06FEF7FEFD8
:101B500002C0692D70E022E030E0C20ED31EC50144
:101B60000E94CA127C01106813FF07C01BC080E2EC
:101B700090E0B3010E94E0128A94882D90E0E8166C
:101B8000F906A8F30FC0F50117FD859117FF8191A4
:101B90005F0190E0B3010E94E01281108A940894E2
:101BA000E108F108E114F10471F7F2C0943611F084
:101BB000993689F517FF08C0F601208131814281ED
:101BC000538184E090E00AC0F601808191819C01FC
:101BD000442737FD4095542F82E090E0C80ED91E6F
:101BE0009FE6F92EF12257FF09C050954095309598
:101BF00021953F4F4F4F5F4F90E8F92ACA01B90135
:101C0000AE014F5F5F4F2AE030E00E940C13E82ED8
:101C1000E889EE1A41C0953721F41F7E2AE030E0B2
:101C20001CC0197F9F3661F0903720F4983509F079
:101C3000B2C00FC0903739F0983709F0ACC004C07B
:101C400028E030E00AC0106114FD146020E130E0AB
:101C500004C014FD166020E132E017FF08C0F60151
:101C6000608171818281938144E050E008C0F60177
:101C700080819181BC0180E090E042E050E0C40EA0
:101C8000D51EAE014F5F5F4F0E940C13E82E58899E
:101C9000E51A8FE7F82EF122F6FE0BC08EEFF82240
:101CA000E91438F4F4FE07C0F2FC05C09FEEF922F7
:101CB00002C01E2D01C0192DF4FE0DC0FE01EE0D57
:101CC000F11D8081803319F4E9EEFE2208C01F5F08
:101CD000F2FE05C003C08F2D867809F01F5F0F2D1F
:101CE000F3FC14C0F0FE0FC0181510F09E2C0BC0B2
:101CF0009E2C980C911A182D06C080E290E0B3013A
:101D00000E94E0121F5F1815C0F304C0181510F4EC
:101D1000811A01C0882404FF0FC080E390E0B30162
:101D20000E94E01202FF1DC001FD03C088E790E0A1
:101D30000EC088E590E00BC0802F867891F001FFFF
:101D400002C08BE201C080E2F7FC8DE290E0B301BB
:101D50000E94E01206C080E390E0B3010E94E0120E
:101D60009A94E914C0F3EA94E1E0F0E0EC0FFD1F6F
:101D7000EE0DF11D808190E0B3010E94E012EE2093
:101D800091F706C080E290E0B3010E94E0128A94CD
:101D90008820C1F799CCF30166817781CB016196E8
:101DA000E2E10C9462115058BB27AA270ED04DC116
:101DB0003ED130F043D120F031F49F3F11F41EF4B6
:101DC00033C10EF4E095E7FB29C1E92F4FD180F331
:101DD000BA17620773078407950718F071F49EF528
:101DE00067C10EF4E0950B2EBA2FA02D0B01B9019F
:101DF00090010C01CA01A0011124FF27591B99F081
:101E0000593F50F4503E68F11A16F040A22F232F8C
:101E1000342F4427585FF3CF469537952795A795DC
:101E2000F0405395C9F77EF41F16BA0B620B730B83
:101E3000840BBAF09150A1F0FF0FBB1F661F771FF4
:101E4000881FC2F70EC0BA0F621F731F841F48F4A9
:101E5000879577956795B795F7959E3F08F0B3CF2F
:101E60009395880F08F09927EE0F97958795089519
:101E70000CD0EBC0E3D040F0DAD030F021F45F3F7B
:101E800019F0CCC0511115C1CFC0F0D098F39923EF
:101E9000C9F35523B1F3951B550BBB27AA2762172E
:101EA0007307840738F09F5F5F4F220F331F441F73
:101EB000AA1FA9F333D00E2E3AF0E0E830D09150AB
:101EC0005040E695001CCAF729D0FE2F27D0660F98
:101ED000771F881FBB1F261737074807AB07B0E8D7
:101EE00009F0BB0B802DBF01FF2793585F4F2AF0ED
:101EF0009E3F510568F092C0DCC05F3FECF3983E16
:101F0000DCF3869577956795B795F7959F5FC9F749
:101F1000880F911D9695879597F90895E1E0660FD2
:101F2000771F881FBB1F621773078407BA0720F04B
:101F3000621B730B840BBA0BEE1F88F7E0950895B4
:101F400004D06894B111B5C0089598D088F09F5717
:101F500090F0B92F9927B751A0F0D1F0660F771FF5
:101F6000881F991F1AF0BA95C9F712C0B13081F0D5
:101F70009FD0B1E008959CC0672F782F8827B85F65
:101F800039F0B93FCCF3869577956795B395D9F736
:101F90003EF490958095709561957F4F8F4F9F4F40
:101FA0000895E89409C097FB3EF49095809570954C
:101FB00061957F4F8F4F9F4F9923A9F0F92F96E995
:101FC000BB279395F695879577956795B795F1110A
:101FD000F8CFFAF4BB0F11F460FF1BC06F5F7F4FA7
:101FE0008F4F9F4F16C0882311F096E911C07723B9
:101FF00021F09EE8872F762F05C0662371F096E8C2
:10200000862F70E060E02AF09A95660F771F881F90
:10201000DAF7880F9695879597F9089597F99F674E
:1020200080E870E060E008959FEF80EC0895002460
:102030000A941616170618060906089500240A942D
:1020400012161306140605060895092E0394000CB3
:1020500011F4882352F0BB0F40F4BF2B11F460FF42
:1020600004C06F5F7F4F8F4F9F4F089557FD90586B
:10207000440F551F59F05F3F71F04795880F97FB4C
:10208000991F61F09F3F79F0879508951216130606
:102090001406551FF2CF4695F1DF08C01616170635
:1020A0001806991FF1CF869571056105089408956A
:1020B000E894BB2766277727CB0197F9089586D048
:1020C00008F48FEF08950BD0C0CFB1DF28F0B6DF52
:1020D00018F0952309F0A2CFA7CF1124EACFC6DFCD
:1020E000A0F3959FD1F3950F50E0551F629FF0012B
:1020F000729FBB27F00DB11D639FAA27F00DB11D84
:10210000AA1F649F6627B00DA11D661F829F22270C
:10211000B00DA11D621F739FB00DA11D621F839F93
:10212000A00D611D221F749F3327A00D611D231F69
:10213000849F600D211D822F762F6A2F11249F57B7
:1021400050408AF0E1F088234AF0EE0FFF1FBB1FDA
:10215000661F771F881F91505040A9F79E3F510579
:1021600070F05CCFA6CF5F3FECF3983EDCF3869532
:1021700077956795B795F795E7959F5FC1F7FE2B24
:10218000880F911D9695879597F9089577DFE0F070
:102190009E37D8F09639B8F49E3848F4672F782FD8
:1021A0008827985FF9CF86957795679593959539A8
:1021B000D0F3B62FB1706B0F711D811D20F4879580
:1021C00077956795939526C040C073CF990F000807
:1021D000550FAA0BE0E8FEEF16161706E807F907F9
:1021E000C0F012161306E407F50798F0621B730B94
:1021F000840B950B39F40A2661F0232B242B252B15
:1022000021F408950A2609F4A140A6958FEF811DB7
:10221000811D0895882371F4772321F09850872B2E
:10222000762F07C0662311F499270DC09051862B95
:1022300070E060E02AF09A95660F771F881FDAF742
:10224000880F9695879597F908959F3F31F09150A3
:1022500020F4879577956795B795880F911D96958A
:10226000879597F9089597FB092E07260AD077FDE1
:1022700004D043D006D000201AF4709561957F4FAA
:102280000895F6F7909581959F4F08952F923F926C
:102290004F925F926F927F928F929F92AF92BF9276
:1022A000CF92DF92EF92FF920F931F93CF93DF9322
:1022B000CDB7DEB7CA1BDB0B0FB6F894DEBF0FBE7F
:1022C000CDBF09942A88398848885F846E847D84CC
:1022D0008C849B84AA84B984C884DF80EE80FD80CE
:1022E0000C811B81AA81B981CE0FD11D0FB6F89444
:1022F000DEBF0FBECDBFED010895AA1BBB1B51E190
:1023000007C0AA1FBB1FA617B70710F0A61BB70B65
:10231000881F991F5A95A9F780959095BC01CD010A
:102320000895A0E0B0E0E7E9F1E10C944E11EC0172
:10233000A880B980CA80DB80A114B104C104D10493
:1023400041F484E2A82E89EDB82E8BE5C82E87E0F3
:10235000D82EC601B5012DE133EF41E050E00E94D7
:10236000891327EA31E440E050E00E946A137B01C0
:102370008C01C601B5012DE133EF41E050E00E9430
:102380008913CA01B9012CEE34EF4FEF5FEF0E94C1
:102390006A136E0D7F1D801F911F97FF04C061504F
:1023A000704080409048688379838A839B839B0137
:1023B0003F77C901CDB7DEB7EAE00C946A110E94FD
:1023C0009111089580E391E00E9491110895A0E099
:1023D000B0E08093300190933101A0933201B0932B
:1023E00033010895283008F027E03327DA01990FE8
:1023F000311D87FD916000966105710539F43260E9
:102400002E5F3D9330E32A95E1F708959F3F30F02A
:1024100080387105610509F03C5F3C5F3D93913068
:1024200008F08068911DDF93CF931F930F93FF9265
:10243000EF92192F987F9695E92F96959695E90F2B
:10244000FF27E75CFB4F99273327EE24FF24A701E2
:10245000E70105900894079428F4360FE71EF81E4C
:10246000491F511D660F771F881F991F0694A1F7FA
:102470000590079428F4E70EF81E491F561FC11D4A
:10248000770F881F991F661F0694A1F70590079480
:1024900028F4F80E491F561FC71FD11D880F991F1A
:1024A000661F771F0694A1F70590079420F4490F43
:1024B000561FC71FD81F990F661F771F881F0694C6
:1024C000A9F784911095177041F0D695C795579547
:1024D0004795F794E7941A95C1F7EFEDF3E0689408
:1024E0001590159135916591959105907FE27395C1
:1024F000E118F10A430B560BC90BD009C0F7E10CE8
:10250000F11E431F561FC91FD01D7EF4703311F4F6
:102510008A95E6CFE894015030F0080F0AF40027BE
:10252000021708F4202F2395022F7A3328F079E33D
:102530007D932A95E9F710C07D932A9589F6069434
:1025400097956795379517951794E118F10A430BFE
:10255000560BC90BD00998F023957E9173957A3369
:1025600008F070E37C932013B8F77E9170617D933F
:1025700030F0839571E37D9370E32A95E1F71124A0
:10258000EF90FF900F911F91CF91DF91992787FDD9
:1025900090950895FC010590615070400110D8F7A6
:1025A000809590958E0F9F1F0895FC01615070409B
:1025B00001900110D8F7809590958E0F9F1F089578
:1025C0000F931F93CF93DF938C01EB018B8181FFDE
:1025D0001BC082FF0DC02E813F818C819D812817F9
:1025E000390764F4E881F9810193F983E88306C02F
:1025F000E885F985802F0995892B31F48E819F819B
:1026000001969F838E8302C00FEF1FEFC801DF91F9
:10261000CF911F910F910895FA01AA27283051F107
:10262000203181F1E8946F936E7F6E5F7F4F8F4F03
:102630009F4FAF4FB1E03ED0B4E03CD0670F781F62
:10264000891F9A1FA11D680F791F8A1F911DA11D47
:102650006A0F711D811D911DA11D20D009F4689480
:102660003F912AE0269F11243019305D3193DEF628
:10267000CF010895462F4770405D4193B3E00FD0DE
:10268000C9F7F6CF462F4F70405D4A3318F0495DC9
:1026900031FD4052419302D0A9F7EACFB4E0A695AC
:1026A0009795879577956795BA95C9F700976105CE
:1026B000710508959B01AC010A2E06945795479524
:1026C00037952795BA95C9F7620F731F841F951F19
:1026D000A01D0895629FD001739FF001829FE00DBD
:1026E000F11D649FE00DF11D929FF00D839FF00D91
:1026F000749FF00D659FF00D9927729FB00DE11D3D
:10270000F91F639FB00DE11DF91FBD01CF01112419
:10271000089597FB092E05260ED057FD04D014D03E
:102720000AD0001C38F450954095309521953F4FC4
:102730004F4F5F4F0895F6F790958095709561958E
:102740007F4F8F4F9F4F0895A1E21A2EAA1BBB1BEC
:10275000FD010DC0AA1FBB1FEE1FFF1FA217B3076D
:10276000E407F50720F0A21BB30BE40BF50B661F83
:10277000771F881F991F1A9469F760957095809547
:1027800090959B01AC01BD01CF010895F894FFCF56
:102790004B696D205365652D4B6565006E31303298
:1027A000363937373100540030000A004830FC30E9
:1027B00048FFC0FFC05540AA8000E10000000008AB
:0427C0000100000014
:00000001FF
