:100000000C946D020C948A020C948A020C948A025D
:100010000C948A020C948A020C948A020C948A0230
:100020000C948A020C948A020C94CE0A0C94090B4C
:100030000C948A020C948A020C948A020C948A0210
:100040000C948A020C948A020C948A020C948A0200
:100050000C948A020C948A020C948A020C948A02F0
:100060000C948A020C948A020C948A020C948A02E0
:100070000C948A020C948A020C948A020C948A02D0
:100080000C948A020C948A020C948A020C948A02C0
:100090000C948A020C948A020C948A020C948A02B0
:1000A0000C948A020C948A020C948A02630A600AF5
:1000B0005D0A5A0A570A540A510A4E0A4B0A480A5C
:1000C000450A420A3F0A3C0A390A360A330A300A0C
:1000D0002D0A2A0A270A240A210A1E0A1B0A180ABC
:1000E000150A120A0F0A0C0A090A060A030A000A6C
:1000F000FD09FA09F709F409F109EE09EB09E80924
:10010000E509E209DF09DC09D909D609D309D009D3
:10011000CD09CA09C709C409C109BE09BB09B80983
:10012000B509B209AF09AC09A909A609A3090001DB
:10013000000062011200020000740143000300008D
:10014000B7010401030904BB011402030904D1012E
:100150001603030904E9010C0001C11201803601F4
:1001600081361201000202000010C0167A0400015C
:100170000102030109024300020100C03209040028
:100180000001020201000524001001052401010103
:10019000042402060524060001070582031000401E
:1001A00009040100020A00000007050302400000E4
:1001B0000705840240000004030904140359006F7A
:1001C000007500720020004E0061006D00650000A7
:1001D00000160355005300420020005300650072D2
:1001E00000690061006C0000000C03310032003334
:1001F00000340035000000000000000000005F0037
:10020000000007000700147F147F14242A7F2A129D
:10021000231308646236495522500005030000008C
:100220001C2241000041221C0014083E081408084A
:100230003E08080050300000080808080800606008
:10024000000020100804023E5149453E00427F4014
:100250000042615149462141454B311814127F102B
:1002600027454545393C4A4949300171090503365E
:1002700049494936064949291E00363600000056CC
:1002800036000008142241001414141414004122F2
:1002900014080201510906324979413E7E111111BB
:1002A0007E7F494949363E414141227F4141221CDE
:1002B0007F494949417F090909013E4149497A7FFE
:1002C0000808087F00417F41002040413F017F082E
:1002D0001422417F404040407F020C027F7F04088F
:1002E000107F3E4141413E7F090909063E415121AF
:1002F0005E7F09192946464949493101017F0101BB
:100300003F4040403F1F2040201F3F4038403F6358
:100310001408146307087008076151494543007FBA
:1003200041410002040810200041417F0004020105
:100330000204404040404000010204002054545454
:10034000787F484444383844444420384444487F03
:100350003854545418087E0901020C5252523E7F00
:100360000804047800447D40002040443D007F1094
:1003700028440000417F40007C041804787C080475
:10038000047838444444387C1414140808141418AD
:100390007C7C080404084854545420043F44402002
:1003A0003C4040207C1C2040201C3C4030403C44D1
:1003B000281028440C5050503C4464544C440008CD
:1003C00036410000007F0000004136080010080898
:1003D000100878464146786E616E00696E660000CE
:1003E000407A10F35A00A0724E18090010A5D4E804
:1003F0000000E87648170000E40B54020000CA9A97
:100400003B000000E1F505000080969800000040E8
:10041000420F000000A0860100000010270000002D
:1004200000E803000000006400000000000A000073
:100430000000000100000000002C76D888DC674F27
:100440000823DFC1DFAE59E1B1B796E5E3E453C657
:100450003AE651997696E8E6C28426EB898C9B624F
:10046000ED407C6FFCEFBC9C9F40F2BAA56FA5F4F9
:1004700090055A2AF75C936B6CF9676DC11BFCE021
:10048000E40D47FEF520E6B500D0ED902E03009474
:100490003577050080841E080000204E0A00000009
:1004A000C80C333333330F986E12831141EF8D2113
:1004B00014893BE65516CFFEE6DB18D1844B381B7A
:1004C000F77C1D901DA4BBE424203284725E22813F
:1004D00000C9F124ECA1E53D270011241FBECFEF98
:1004E000DAE0DEBFCDBF11E0A0E0B1E0EAE7FFE275
:1004F00002C005900D92A234B107D9F715E0A2E42D
:10050000B1E001C01D92A236B107E1F70E940606D4
:100510000C94BB170C94000090917C008770987F1E
:10052000892B80937C0080917A00806480937A008C
:1005300080917A0086FDFCCF20917800309179007F
:10054000C90108955F926F927F928F929F92AF92AE
:10055000BF92CF92DF92EF92FF920F931F93CF93B0
:10056000DF93C0913101D091320160905D017090B4
:100570005E0180905F0190906001A0906101B09059
:100580006201C0906301D09064015090330102E792
:1005900011E081E0E82EF12C2CC0C401B301F80178
:1005A00020813181428153810E9468138823E1F4C4
:1005B000C601B501F80124813581468157810E9429
:1005C0006813882389F4552079F480913001815093
:1005D0008093300182E090E090933201809331016A
:1005E00081E0809333015FC00894E11CF11C0B5E35
:1005F0001F4FCE15DF058CF6219785E190E0C89F4F
:10060000F001C99FF00DD89FF00D11242196E35AF7
:10061000FE4F12C0219780819181A281B381858B89
:10062000968BA78BB08F84819581A681B781818FAE
:10063000928FA38FB48F75971C161D065CF3609183
:100640005D0170915E0180915F0190916001209148
:1006500065013091660140916701509168010E94E7
:10066000041360935D0170935E0180935F0190932A
:1006700060016091610170916201809163019091CC
:1006800064012091690130916A0140916B015091A0
:100690006C010E9404136093610170936201809366
:1006A000630190936401DF91CF911F910F91FF90AF
:1006B000EF90DF90CF90BF90AF909F908F907F9002
:1006C0006F905F9008958F929F92AF92BF92CF925A
:1006D000DF92EF92FF920F931F93CF93DF9360917E
:1006E00061017091620180916301909164010E94A7
:1006F000D413EB01A0905D01B0905E01C0905F014A
:10070000D090600180906D0160914C0170914D011D
:1007100080914E0190914F010E94D4132091590174
:10072000E0904801F090490100914A0110914B017D
:100730009090580180916E01AE01480F511D6417D1
:10074000750704F5620F711DC617D707DCF4C601E3
:10075000B5010E94D413EB01C801B7010E94D41364
:10076000CE01880D911D6817790764F490E0690D3A
:10077000711DC617D7070CF091E081E09827292F4B
:1007800030E002C020E030E0C901DF91CF911F913D
:100790000F91FF90EF90DF90CF90BF90AF909F9020
:1007A0008F9008950F931F93CF93DF930DE511E082
:1007B000C0E0D0E006C0C8010E94EC0E21960B5E9E
:1007C0001F4F8091310190913201C817D9079CF3D6
:1007D000DF91CF911F910F9108952F923F924F92E9
:1007E0005F926F927F928F929F92AF92BF92CF92C1
:1007F000DF92EF92FF920F931F93CF93DF932C0121
:100800007B015A01E901609161017091620180915F
:100810006301909164010E94D4131B0180916E01C9
:100820006101C80ED11C60905D0170905E018090E6
:100830005F019090600110916D01CE0DDF1DA40C41
:10084000B51CC201B701A5019E0101E00E94B50CD3
:10085000EC14FD04BCF4C215D305A4F0C401B3012B
:100860000E94D413CB01810F911D4816590654F4F0
:1008700090E0A616B7060CF491E081E09827292FA6
:1008800030E002C020E030E0C901DF91CF911F913C
:100890000F91FF90EF90DF90CF90BF90AF909F901F
:1008A0008F907F906F905F904F903F902F90089522
:1008B0007F928F929F92AF92BF92CF92DF92EF92F0
:1008C000FF920F931F930E94B8150E94B3158C01DD
:1008D0000E94B31560E370E00E940415782EC801F1
:1008E00064E570E00E94041590E0A0E0B0E0BC0177
:1008F000CD010E9405146B017C01672D70E080E042
:1009000090E00E9405148B019C0184E3882E81E015
:10091000982E8DE591E0B701A601B3E0EB2EA3E0A0
:10092000CA2E54010E94C80EC0905D01D0905E0195
:10093000E0905F01F0906001272D30E024503040BE
:10094000B901882777FD8095982F0E9407148B01A5
:100950009C0182E791E0B701A601F3E0EF2EE3E00E
:10096000CE2E0E94C80E80E090E0A0E0B0E0809320
:10097000650190936601A0936701B093680180932D
:10098000690190936A01A0936B01B0936C011F9170
:100990000F91FF90EF90DF90CF90BF90AF909F901E
:1009A0008F907F9008952F923F924F925F926F9217
:1009B0007F928F929F92AF92BF92CF92DF92EF92EF
:1009C000FF920F931F93DF93CF9300D000D00F922D
:1009D000CDB7DEB79D838C838C819D810E94B81535
:1009E0000E94B31564E570E00E9404158B830E9499
:1009F000B31560E370E00E9404158A8302E711E0FA
:100A000091E0292E312C5AC0F801648175818681CC
:100A100097810E94D9136983F80160807180828078
:100A20009380A08860914C0170914D0180914E019E
:100A300090914F010E94D91320915901C090480113
:100A4000D0904901E0904A01F0904B01B0905801DC
:100A5000F80181898150F9818F0F861750F121505B
:100A6000260F2F1730F1C401B3010E94D913962E1F
:100A7000C701B6010E94D913AA94A90CA616C8F002
:100A8000BA94B60EB914A8F08091420120913001B9
:100A9000829FC00111249C01249DC001259D900DC1
:100AA000349D900D1124EC81FD818E0F9F1F0E94BB
:100AB000D3040894211C311C0B5E1F4F4090310160
:100AC00050903201421453040CF09ECFFA81F8305A
:100AD00030F0FA81F13318F4FB81F535B0F08091F4
:100AE000300120914201829FC00111249C01249D6C
:100AF000C001259D900D349D900D1124EC81FD8148
:100B0000E80FF91FFD83EC8367CFFB816F2F70E047
:100B100080E090E00E9405146093480170934901C1
:100B200080934A0190934B012A81622F70E080E00C
:100B300090E00E94051460934C0170934D018093E6
:100B40004E0190934F010F900F900F900F900F90C8
:100B5000CF91DF911F910F91FF90EF90DF90CF9099
:100B6000BF90AF909F908F907F906F905F904F90CD
:100B70003F902F9008950F931F93DF93CF93CDB79E
:100B8000DEB7C055D0400FB6F894DEBF0FBECDBF64
:100B90008DB79EB708970FB6F8949EBF0FBE8DBF56
:100BA000EDB7FEB731968E010F5F1F4FADB7BEB7E1
:100BB00012961C930E93119780E091E093838283A9
:100BC000809142018483158280913001868317824F
:100BD0000E94DD168DB79EB708960FB6F8949EBF9B
:100BE0000FBE8DBF80E090E060E070E0A80121E0E2
:100BF0000E943C0EC05BDF4F0FB6F894DEBF0FBE05
:100C0000CDBFCF91DF911F910F9108952F923F9209
:100C10004F925F926F927F928F929F92AF92BF920C
:100C2000CF92EF92FF920F931F93DF93CF9300D059
:100C3000CDB7DEB780E480937C0087E880937A00AC
:100C400010BA1AB88CE084B915B880E880936100B6
:100C500081E0809361008FE30E947F0E0E94870CE9
:100C600085E090E06FE070E040E151E021E00E941B
:100C70003C0E85E090E069E170E04DE151E021E05B
:100C80000E943C0E0E94740C80E29EE428EC30E04E
:100C9000F9013197F1F70197D9F70E94870C88E1A4
:100CA00090E00E94580480EC89838A8388E491E074
:100CB00040E050E068E272E400E010E020E431E45B
:100CC000F2E0EF2EE2E0CE2E5E010894A11CB11CF2
:100CD0000E94C80EFF24F3940F2EF0E06F2EF0E078
:100CE0007F2EF0E08F2EF0E09F2EF02D82E0282E58
:100CF000312C08EC402E512CDFC10E94870C0E9441
:100D0000BB0580913301813051F520913101309143
:100D10003201C901880F991F820F931FB3E0880F1A
:100D2000991FBA95E1F70E94580480913101909182
:100D3000320146ED50E0849F9001859F300D949FD5
:100D4000300D11248091420190E0DC012A9FC00106
:100D50002B9F900D3A9F900D11240E94D3040E9466
:100D6000D20388E491E00E94EC0E7E9B02C01092B8
:100D700043017D9B02C0F0924301499B16C080E075
:100D800090E0A0E4B0EC8093690190936A01A09395
:100D90006B01B0936C016092650170926601809264
:100DA00067019092680110923301489B16C06092CF
:100DB000690170926A0180926B0190926C0180E0EF
:100DC00090E0A0E4B0E48093650190936601A09365
:100DD0006701B093680110923301199B16C06092AD
:100DE000690170926A0180926B0190926C0180E0BF
:100DF00090E0A0E4B0EC8093650190936601A0932D
:100E00006701B0936801109233011F9B16C080E008
:100E100090E0A0E4B0E48093690190936A01A0930C
:100E20006B01B0936C0160926501709266018092D3
:100E300067019092680110923301109143011130C3
:100E400009F045C080E090E068E170E048E150E0E2
:100E500020E030E00E94ED03892B59F080913001B1
:100E600081508093300130923201209231011093F1
:100E700033018AE290E067E070E040E050E028E172
:100E800030E00E94ED03892B59F0809130018150B0
:100E9000809330013092320120923101F09233017F
:100EA00088E390E060E270E04BE150E020E030E069
:100EB0000E94ED03892B59F080913001815080937D
:100EC00030013092320120923101F0923301609171
:100ED0005D0170915E0180915F019091600120E061
:100EE00030E04AEA52E40E94B714882344F060924A
:100EF0005D0170925E0180925F019092600160914D
:100F0000610170916201809163019091640120E020
:100F100030E040EE50E40E946813181664F080E060
:100F200090E0A0E4B2E48093610190936201A09309
:100F30006301B093640160916101709162018091DD
:100F400063019091640120E030E044E452E40E94A7
:100F5000B714882364F080E090E0A0E0B1E48093CF
:100F6000610190936201A0936301B0936401609169
:100F70005D0170915E0180915F019091600120E0C0
:100F800030E040E85FEB0E946813181664F080E0E0
:100F900090E0A8EAB2E480935D0190935E01A09393
:100FA0005F01B09360010E946303892B09F446C07E
:100FB0008091430190914201813011F49E5F01C004
:100FC0009F5F90934201809131019091320101968F
:100FD000909332018093310120914201820F911D43
:100FE0000E94D3042091310130913201A5E1B0E09B
:100FF0002A9FC0012B9F900D3A9F900D11242250E3
:1010000030402A9FF0012B9FF00D3A9FF00D1124E4
:10101000E35AFE4F408151816281738104811581C1
:1010200026813781835A9E4FA3E0EA2EF3E0CF2E2C
:10103000E4E3AE2EE1E0BE2E0E94C80E0E94A202A2
:101040000E94740C81E00E948C02009741F480EDB4
:1010500097E0F2013197F1F70197D9F72DC08C3F56
:10106000910540F48CE697E0F2013197F1F7019792
:10107000D9F722C0B1E0843C9B0740F488E097E0B8
:10108000F2013197F1F70197D9F716C022E08C38B9
:10109000920740F484EA96E0F2013197F1F7019764
:1010A000D9F70AC08455934038F480E496E0F20101
:1010B0003197F1F70197D9F780913001882309F032
:1010C0001CCE0E94870C85E090E06FE070E046E265
:1010D00051E021E00E943C0E0E94740C80E090E000
:1010E0000F900F90CF91DF911F910F91FF90EF9094
:1010F000CF90BF90AF909F908F907F906F905F90B8
:101100004F903F902F90089581E08093D70080EA20
:101110008093D80082E189BD09B400FEFDCF80E94B
:101120008093D8001092E000109244011092450183
:101130008CE08093E20078940895809144010895B2
:101140002FB7F89480914401882369F083E080935D
:10115000E9009BE68091E80085FD09C082FF03C09D
:101160009093E800F7CF2FBF2FEF3FEF0CC0909187
:10117000F1008091E80085FD03C08BE68093E800D4
:101180002FBF292F30E0C90108952FB7F89480911F
:101190004401882311F490E010C083E08093E900BB
:1011A0009091F200992349F48091E80082FF05C0F4
:1011B00085FD03C08BE68093E8002FBF892F08953B
:1011C00080914401882371F09FB7F89483E0809365
:1011D000E9002BE602C02093E8008091E80085FD3D
:1011E000FACF9FBF0895482F809144018823D9F1F9
:1011F0002FB7F89484E08093E90080914701882319
:1012000041F08091E80085FD02C02FBF12C010920E
:1012100047019091E400975E34E08091E80085FDFD
:1012200013C02FBF8091E400891729F481E08093D7
:1012300047018FEF0895809144018823A1F02FB7D3
:10124000F8943093E900E9CF4093F1008091E800F1
:1012500085FD03C08AE38093E80085E08093460122
:101260002FBF80E008958FEF0895282F80914401CB
:10127000882351F09FB7F89484E08093E90080912F
:10128000E80085FD03C09FBF8FEF08952093F10014
:101290008091E80085FD03C08AE38093E80085E043
:1012A000809346019FBF80E00895CF93DF93EC01C8
:1012B00080914401882309F41CC13FB7F89484E06D
:1012C0008093E90080914701882309F408C1809147
:1012D000E80085FD02C03FBF0CC110924701FFC06E
:1012E0009091E400975E8091E80085FD13C03FBFB8
:1012F0008091E400891721F481E080934701F9C0CF
:1013000080914401882309F4F4C03FB7F894B09366
:10131000E900E9CF8091F200242F281B822F90E072
:101320006817790708F4262F822F90E08134910501
:1013300008F0C6C08A5A9F4FFC01EE0FFF1F0590B0
:10134000F491E02D099489918093F1008991809323
:10135000F10089918093F10089918093F100899146
:101360008093F10089918093F10089918093F1003D
:1013700089918093F10089918093F1008991809304
:10138000F10089918093F10089918093F100899116
:101390008093F10089918093F10089918093F1000D
:1013A00089918093F10089918093F10089918093D4
:1013B000F10089918093F10089918093F1008991E6
:1013C0008093F10089918093F10089918093F100DD
:1013D00089918093F10089918093F10089918093A4
:1013E000F10089918093F10089918093F1008991B6
:1013F0008093F10089918093F10089918093F100AD
:1014000089918093F10089918093F1008991809373
:10141000F10089918093F10089918093F100899185
:101420008093F10089918093F10089918093F1007C
:1014300089918093F10089918093F1008991809343
:10144000F10089918093F10089918093F100899155
:101450008093F10089918093F10089918093F1004C
:1014600089918093F10089918093F1008991809313
:10147000F10089918093F10089918093F100899125
:101480008093F10089918093F10089918093F1001C
:1014900089918093F10089918093F10089918093E3
:1014A000F10089918093F10089918093F1008991F5
:1014B0008093F10089918093F10089918093F100EC
:1014C00089918093F1008091E80085FD02C05093DE
:1014D000E800621B7109A09346013FBF04C0B4E05D
:1014E00040E45AE3A5E06115710509F0F9CE80E00A
:1014F00001C08FEFDF91CF9108959FB7F89480914D
:101500004601882341F084E08093E9008AE38093D8
:10151000E800109246019FBF0895609137017091D5
:1015200038018091390190913A01089580913B01F1
:10153000089580913C01089580913D010895809126
:1015400045010895282F9FB7F8948091440188237E
:1015500039F082E08093E9008091E80085FD03C0C6
:101560009FBF8FEF089581EA8093F10080E280931E
:10157000F1001092F1001092F1001092F10010921F
:10158000F10081E08093F1001092F1002093F100CE
:101590008AE38093E8009FBF80E008951F920F9236
:1015A0000FB60F9211248F939F938091E1001092B8
:1015B000E100982F83FF11C01092E90081E0809331
:1015C000EB001092EC0082E18093ED0088E08093C4
:1015D000F000109244011092450192FF13C08091D7
:1015E0004401882379F080914601882359F0815085
:1015F00080934601882331F484E08093E9008AE3F4
:101600008093E8009F918F910F900FBE0F901F90D5
:1016100018951F920F920FB60F9211240F931F93DC
:101620002F933F934F935F936F937F938F939F93EA
:10163000AF93BF93EF93FF931092E9008091E8007E
:1016400083FF3CC14091F1003091F1008091F100A5
:10165000682F70E02091F100922F80E0682B792BA9
:101660008091F100A82FB0E02091F100922F80E04E
:10167000A82BB92B1091F1000091F10082EF80931B
:10168000E800363009F05AC025E331E0A9014550A1
:101690005040F9013797859194918617970701F586
:1016A000FA01859194918A179B07D1F49A012E5FD4
:1016B0003F4FF901659174912E5F3F4FF9014491BD
:1016C000212F30E0902F80E0282B392B2F3F310540
:1016D00019F010F02FEF30E0241758F4422F09C012
:1016E000295F3F4F495F5F4FF1E02F353F0789F694
:1016F000E5C05EEF8091E800282F30E0C9018570D9
:101700009070892BB9F322FDDCC0342F413108F0F1
:1017100030E1232FCB0106C0FC010196E491E09358
:10172000F10021502223C1F7630F711D431B509319
:10173000E8004423F9F63031E9F2C3C0353061F4F2
:101740008EEF8093E8008091E80080FFFCCF862F29
:1017500080688093E300B5C0393051F5442309F027
:10176000ADC06093440110924501109246018EEF86
:101770008093E80088E591E021E02093E900FC01F6
:101780000196E491E093EB00EE2369F0AC014F5F2A
:101790005F4FFC0184918093EC00CA010196FA012D
:1017A00034913093ED002F5F253039F78EE181C001
:1017B000383061F4403809F081C08091E80080FF42
:1017C000FCCF809144018093F10050C0313289F404
:1017D000413A09F073C08091E80080FFFCCFE7E355
:1017E000F1E081918093F10081E0EE33F807C9F7D1
:1017F0003DC03032A1F4413209F060C08091E80070
:1018000082FFFCCFE7E3F1E08091F100819381E07A
:10181000EE33F807C9F78BEF8093E80027C0323228
:1018200051F4413209F04AC0609345018091E800CB
:1018300080FFFCCF1BC03323E9F48091E80080FFD8
:10184000FCCF423811F080E00DC0A093E9008091F8
:10185000EB0090E025E0969587952A95E1F7817059
:101860001092E9008093F1001092F1008EEF8093C6
:10187000E80027C0313011F0333001F54230F1F487
:10188000672BE1F42A2F2F77822F81508430B0F418
:101890008EEF8093E8002093E900333079F089E1FE
:1018A0008093EB0081E090E002C0880F991F2A9599
:1018B000E2F78093EA001092EA0003C081E280938D
:1018C000EB00FF91EF91BF91AF919F918F917F912D
:1018D0006F915F914F913F912F911F910F910F90B9
:1018E0000FBE0F901F901895CF93DF9360E080E0BC
:1018F0000E94BC0ECAE6D3E0699181E00E94610EAD
:1019000085E0C236D807C1F7DF91CF910895EAE6A6
:10191000F3E0119285E0E236F807D9F708958435AF
:101920009105F8F460337105E0F49B0173E035959F
:1019300027957A95E1F774E5729FF001739FF00D9A
:101940001124E80FF91FE659FC4F8081677021E0F0
:1019500030E001C0220F6A95EAF7452B19F0282BD9
:101960002083089520952823FBCF2F923F924F92FA
:101970005F926F927F928F929F92AF92BF92CF921F
:10198000DF92EF92FF920F931F93CF93DF93CDB728
:10199000DEB728970FB6F894DEBF0FBECDBF98878D
:1019A0008F837B016A01190184179507A1F56B01EB
:1019B00013C031E0C31AD1080FC0C214D30494F08D
:1019C000A801B6018F8198850E948F0CE214F30460
:1019D00084F72FEFC21AD20AE214F30474F72C141E
:1019E0003D0474F728960FB6F894DEBF0FBECDBF46
:1019F000DF91CF911F910F91FF90EF90DF90CF90EB
:101A0000BF90AF909F908F907F906F905F904F901E
:101A10003F902F9008956217730701F5AF80B88447
:101A200014C021E0A21AB10810C0AC14BD04D4F255
:101A3000A801B701C5010E948F0C8F8198858C1574
:101A40009D057CF79FEFA91AB90A8F8198858C159F
:101A50009D055CF7CA14DB045CF7C4CF2F81388581
:101A60004217530754F48F2D7101262E382E9F8173
:101A7000888558874F83C92ED82EC6012F81388577
:101A8000821B930B9C838B83C1018E199F099A83C0
:101A90008983BC01990F880B990B0E9407144B0195
:101AA0005C012B813C81B901330F880B990B0E949B
:101AB00007149B01AC01C501B4010E946C132B01FA
:101AC0003C0120E030E0A9010E94B71487FF04C068
:101AD00077FA709477F87094812C912C54018A8154
:101AE000881F8827881F282F30E03E832D838B8115
:101AF0009C81181619060CF057C02F813885C21624
:101B0000D3060CF46FCFA801B7018F8198850E948E
:101B10008F0CA3019201C501B4010E9404134B0173
:101B20005C0120E030E040E05FE30E94B71487FDF5
:101B300008C089819A811816190674F42E143F047E
:101B400074F42B813C81121613063CF58F81988525
:101B5000019698878F83CBCFE214F30494F3A80106
:101B6000B7018F8198850E948F0C81E090E02981D8
:101B70003A811216130614F090E080E02D813E8128
:101B8000821B930BE80EF91E20E030E040E85FE393
:101B9000C501B4010E940313C2CF2F8138852150A3
:101BA000310938872F83A3CF8F8198858C159D05A8
:101BB0000CF0A9CF17CF4F925F926F927F928F92C6
:101BC0009F92AF92BF92CF92DF92EF92FF920F93CC
:101BD0001F93CF93DF935B0139014052550B65E0B2
:101BE000649F9001659F300D1124A90149505E4FFB
:101BF0007A018C012C0155E0450E511C88248394F8
:101C0000912CF701C4906114710409F4C094D0E0E0
:101C1000C0E0D12CA4010C2E02C0440F551F0A9421
:101C2000E2F74C215D210C2E02C0559547950A9490
:101C3000E2F7B5016C0F7D1FC8010E948F0C219641
:101C4000C830D10539F74FEFE41AF40A0F5F1F4F80
:101C500004151505B1F6DF91CF911F910F91FF90FB
:101C6000EF90DF90CF90BF90AF909F908F907F903C
:101C70006F905F904F900895CF92DF92EF92FF9216
:101C80000F931F93CF93DF937B018A016901D82FB4
:101C9000C0E0F801EC0FF11D4081411109C0DF9156
:101CA000CF911F910F91FF90EF90DF90CF9008950B
:101CB0009601B7018D2F90E00E94DB0DDB5FCF5FB7
:101CC000E8CF95B19F7D40E2849F90011124922B33
:101CD00095B95F9887E090E070E08F989B01082E9F
:101CE00002C0359527950A94E2F720FF06C02E9A88
:101CF0008F9A019790F75F9A08952E98F9CFCF9316
:101D0000C82F579A249A259A269A879A2C985F9AD0
:101D10002C9A61E280E00E94610E6C2F606880E086
:101D20000E94610E64E080E00E94610E63E180E049
:101D30000E94610E6CE080E00E94610E60E280E033
:101D40000E94610E6CE080E00E94610E60E480E021
:101D50000E94610E60E880E0CF910C94610ECF93F9
:101D6000DF93C8EFD1E060E081E00E94610E21972F
:101D7000D1F7DF91CF910895CF93C82F606480E0B1
:101D80000E94610E6C2F606880E0CF910C94610E10
:101D9000AF92BF92CF92EF920F931F93FC014083BB
:101DA0005183628373830483158326833783E08A98
:101DB000C18AB48AA38A81E0828B1086118612863A
:101DC000138614861586168617861F910F91EF903D
:101DD000CF90BF90AF9008956F927F928F929F9215
:101DE000AF92BF92CF92DF92EF92FF920F931F9329
:101DF000CF93DF93EC018A89882309F46EC0688150
:101E000079818A819B810E94BB140E94D4135B015B
:101E1000643571050CF061C06888712C660D771D02
:101E2000161617060CF059C06C817D818E819F813A
:101E30000E94BB140E94D413603371050CF04DC096
:101E4000298930E0260F371F121613060CF045C003
:101E500027E0620E711C33E0759467943A95E1F7C0
:101E60008B01912C812CD12CC12C89898C151D04BE
:101E7000A1F19CF1F12CE12C23C0C70123E0959541
:101E800087952A95E1F7EB89FC89E80DF91DE80FA4
:101E9000F91F408150E0C701809590958770992780
:101EA00002C0559547958A95E2F741705527B801CC
:101EB000C5018E0D9F1D0E948F0C8FEFE81AF80A46
:101EC00088898E151F0409F0C4F62FEFC21AD20AB2
:101ED000860C971C0F5F1F4FC8CFDF91CF911F91CA
:101EE0000F91FF90EF90DF90CF90BF90AF909F90B9
:101EF0008F907F906F900895A1E1B0E0E2E8FFE05D
:101F00000C9417153C017F876E876A01FC011782CC
:101F10001682838181FD03C06FEF7FEF6FC39E0147
:101F20002F5F3F4F398B288BF3012381EE85FF858F
:101F300023FD859123FF8191FF87EE87882309F494
:101F40005AC3853251F4EE85FF8523FD859123FF29
:101F50008191FF87EE87853229F490E0B3010E94DA
:101F6000B116E2CF982F10E0882499241032B0F4F3
:101F70009B3269F09C3228F4903251F0933271F424
:101F80000BC09D3239F0903349F4116028C01260C3
:101F9000146025C0186023C0106121C017FD2AC03D
:101FA000892F80538A3078F416FF06C0FAE09F9E8E
:101FB000902C1124980E13C03AE0839E802C11249B
:101FC000880E10620CC09E3221F416FD14C31064FA
:101FD00006C09C3611F4106802C0983659F4EE859C
:101FE000FF8523FD959123FF9191FF87EE8799232C
:101FF00009F0BCCF892F8554833020F4812F806174
:10200000905E07C0892F8556833008F09FC1812FCD
:102010008F7E86FD02C076E0972E6FE3F62EF822C3
:10202000953619F4F0E4FF2A07C0963619F420E833
:10203000F22A02C091109A94F7FE0AC03BE33915C8
:1020400018F45CE3B52E02C0B92CB39427E009C0A4
:1020500047E0491520F4BB2447E0942EF7CF292D03
:10206000BB24C60104969D878C87F601608171812F
:1020700082819381AE014F5F5F4F0B2D0E94C3158C
:102080006C010981202E332400FF04C003FD02C02F
:102090001DE209C0F1FE02C01BE205C0F2FC02C055
:1020A00010E001C010E2C1018C709070892BB9F171
:1020B000112311F483E001C084E0881510F0882416
:1020C0000AC0881AF3FC07C080E290E0B3010E94C6
:1020D000B1168A94C9F7112329F0812F90E0B3013A
:1020E0000E94B11623FE03C007ED13E00EC00BEDF6
:1020F00013E00BC0E114F10409F0805290E0B30149
:102100000E94B1160F5F1F4F05C0EF2CFF24F0E1B6
:10211000EF22FF24F8018491882361F714C1F7FEB0
:1021200012C0BC0C24FE04C08A81813309F4BA9425
:102130001B141CF0BB24B3942DC0F8E0FB1550F524
:1021400038E0B32E27C0F6FC25C0892D90E08C1511
:102150009D054CF02CEFC2162FEFD20624F030E88C
:10216000F32A01C09A94992049F0E2E0F0E0EC0FE4
:10217000FD1FE90DF11D80818033A1F3F7FE0AC038
:10218000B92CB394892D90E0C816D90614F099247F
:1021900001C09C18F7FC03C025E030E009C01C1406
:1021A0001D041CF021E030E003C096012F5F3F4F7B
:1021B000112311F02F5F3F4F992029F0892D90E0D6
:1021C0000196280F391F882D90E02817390714F041
:1021D000882401C0821A4F2C5524C2018970907046
:1021E000892B39F008C080E290E0B3010E94B1165B
:1021F0008A948820C1F7112329F0812F90E0B30140
:102200000E94B11643FE07C008C080E390E0B3010E
:102210000E94B1168A948820C1F7F7FE46C0860155
:10222000D7FE02C000E010E076010894E11CF11C2A
:10223000E01AF10A41E050E04C0F5D1FE40EF51E7C
:1022400026014B185108892D90E0AA24BB24A81A16
:10225000B90A5FEF0F3F150729F48EE290E0B30152
:102260000E94B116C016D10634F0401651061CF477
:10227000F701808101C080E3015010400894E11C07
:10228000F11C0A151B052CF090E0B3010E94B11659
:10229000E0CF0C151D0539F49A81963318F4953367
:1022A00011F424FE81E390E04BC08A81813309F070
:1022B0000F7E90E0B3010E94B1169920A1F08EE24A
:1022C00090E0B3010E94B11612E0E1E0F0E0EC0F03
:1022D000FD1FE10FF11D1F5F808190E0B3010E949F
:1022E000B1169A9491F744FC03C085E690E002C0D1
:1022F00085E490E0B3010E94B116D7FC05C0C1147B
:10230000D10441F404FF06C0D094C194D108D39401
:102310008DE201C08BE290E0B3010E94B11680E330
:1023200005C08F5F26EF3FEFC20ED31E3AE0C31603
:10233000D104BCF790E0B3010E94B116C601C0966B
:10234000B3010E94B116CC84DD8452C1933631F0C2
:10235000933799F0933509F059C023C0F601808175
:1023600089835E010894A11CB11C22E030E0C20EFA
:10237000D31E21E0E22EF12C12C0F601A080B18024
:1023800016FD03C06FEF7FEF02C0692D70E022E001
:1023900030E0C20ED31EC5010E94A6167C011F7735
:1023A00013C0F601A080B18016FD03C06FEF7FEF70
:1023B00002C0692D70E022E030E0C20ED31EC501DC
:1023C0000E949B167C01106813FF07C01BC080E2AF
:1023D00090E0B3010E94B1168A94882D90E0E8162F
:1023E000F906A8F30FC0F50117FD859117FF81913C
:1023F0005F0190E0B3010E94B11681108A940894A5
:10240000E108F108E114F10471F7F2C0943611F01B
:10241000993689F517FF08C0F60120813181428184
:10242000538184E090E00AC0F601808191819C0193
:10243000442737FD4095542F82E090E0C80ED91E06
:102440009FE6F92EF12257FF09C05095409530952F
:1024500021953F4F4F4F5F4F90E8F92ACA01B901CC
:10246000AE014F5F5F4F2AE030E00E940117E82E77
:10247000E889EE1A41C0953721F41F7E2AE030E04A
:102480001CC0197F9F3661F0903720F4983509F011
:10249000B2C00FC0903739F0983709F0ACC004C013
:1024A00028E030E00AC0106114FD146020E130E043
:1024B00004C014FD166020E132E017FF08C0F601E9
:1024C000608171818281938144E050E008C0F6010F
:1024D00080819181BC0180E090E042E050E0C40E38
:1024E000D51EAE014F5F5F4F0E940117E82E58893D
:1024F000E51A8FE7F82EF122F6FE0BC08EEFF822D8
:10250000E91438F4F4FE07C0F2FC05C09FEEF9228E
:1025100002C01E2D01C0192DF4FE0DC0FE01EE0DEE
:10252000F11D8081803319F4E9EEFE2208C01F5F9F
:10253000F2FE05C003C08F2D867809F01F5F0F2DB6
:10254000F3FC14C0F0FE0FC0181510F09E2C0BC049
:102550009E2C980C911A182D06C080E290E0B301D1
:102560000E94B1161F5F1815C0F304C0181510F4AF
:10257000811A01C0882404FF0FC080E390E0B301FA
:102580000E94B11602FF1DC001FD03C088E790E064
:102590000EC088E590E00BC0802F867891F001FF97
:1025A00002C08BE201C080E2F7FC8DE290E0B30153
:1025B0000E94B11606C080E390E0B3010E94B116FC
:1025C0009A94E914C0F3EA94E1E0F0E0EC0FFD1F07
:1025D000EE0DF11D808190E0B3010E94B116EE2056
:1025E00091F706C080E290E0B3010E94B1168A9490
:1025F0008820C1F799CCF30166817781CB01619680
:10260000E2E10C9433155058BB27AA270ED075C1B0
:1026100066D130F06BD120F031F49F3F11F41EF4FD
:102620005BC10EF4E095E7FB51C1E92F77D180F350
:10263000BA17620773078407950718F071F49EF5BF
:102640008FC10EF4E0950B2EBA2FA02D0B01B9010E
:1026500090010C01CA01A0011124FF27591B99F018
:10266000593F50F4503E68F11A16F040A22F232F24
:10267000342F4427585FF3CF469537952795A79574
:10268000F0405395C9F77EF41F16BA0B620B730B1B
:10269000840BBAF09150A1F0FF0FBB1F661F771F8C
:1026A000881FC2F70EC0BA0F621F731F841F48F441
:1026B000879577956795B795F7959E3F08F0B3CFC7
:1026C0009395880F08F09927EE0F979587950895B1
:1026D000D9D008F481E008950CD00FC107D140F0A3
:1026E000FED030F021F45F3F19F0F0C0511139C134
:1026F000F3C014D198F39923C9F35523B1F3951B73
:10270000550BBB27AA2762177307840738F09F5F12
:102710005F4F220F331F441FAA1FA9F333D00E2E81
:102720003AF0E0E830D091505040E695001CCAF7EE
:1027300029D0FE2F27D0660F771F881FBB1F2617B3
:1027400037074807AB07B0E809F0BB0B802DBF0186
:10275000FF2793585F4F2AF09E3F510568F0B6C09F
:1027600000C15F3FECF3983EDCF386957795679563
:10277000B795F7959F5FC9F7880F911D9695879537
:1027800097F90895E1E0660F771F881FBB1F621756
:1027900073078407BA0720F0621B730B840BBA0B14
:1027A000EE1F88F7E095089504D06894B111D9C060
:1027B0000895BCD088F09F5790F0B92F9927B75152
:1027C000A0F0D1F0660F771F881F991F1AF0BA95F5
:1027D000C9F712C0B13081F0C3D0B1E00895C0C0D4
:1027E000672F782F8827B85F39F0B93FCCF38695EB
:1027F00077956795B395D9F73EF490958095709548
:1028000061957F4F8F4F9F4F0895E89409C097FBC4
:102810003EF490958095709561957F4F8F4F9F4FB7
:102820009923A9F0F92F96E9BB279395F6958795FB
:1028300077956795B795F111F8CFFAF4BB0F11F4BE
:1028400060FF1BC06F5F7F4F8F4F9F4F16C0882365
:1028500011F096E911C0772321F09EE8872F762F9B
:1028600005C0662371F096E8862F70E060E02AF0DC
:102870009A95660F771F881FDAF7880F96958795C8
:1028800097F90895990F0008550FAA0BE0E8FEEF9D
:1028900016161706E807F907C0F012161306E40724
:1028A000F50798F0621B730B840B950B39F40A261D
:1028B00061F0232B242B252B21F408950A2609F4FB
:1028C000A140A6958FEF811D811D089597F99F67FF
:1028D00080E870E060E008959FEF80EC08950024A8
:1028E0000A941616170618060906089500240A9475
:1028F00012161306140605060895092E0394000CFB
:1029000011F4882352F0BB0F40F4BF2B11F460FF89
:1029100004C06F5F7F4F8F4F9F4F089557FD9058B2
:10292000440F551F59F05F3F71F04795880F97FB93
:10293000991F61F09F3F79F087950895121613064D
:102940001406551FF2CF4695F1DF08C0161617067C
:102950001806991FF1CF86957105610508940895B1
:10296000E894BB2766277727CB0197F908958ADF7C
:1029700008F48FEF0895DADFE0F09E37D8F096394B
:10298000B8F49E3848F4672F782F8827985FF9CFDE
:1029900086957795679593959539D0F3B62FB17055
:1029A0006B0F711D811D20F4879577956795939521
:1029B00002C01CC0D6CF882371F4772321F0985031
:1029C000872B762F07C0662311F499270DC09051ED
:1029D000862B70E060E02AF09A95660F771F881FBB
:1029E000DAF7880F9695879597F908959F3F31F00C
:1029F000915020F4879577956795B795880F911D2D
:102A00009695879597F9089597FB092E07260AD082
:102A100077FD04D043D006D000201AF4709561955C
:102A20007F4F0895F6F7909581959F4F08952F92C7
:102A30003F924F925F926F927F928F929F92AF924E
:102A4000BF92CF92DF92EF92FF920F931F93CF939B
:102A5000DF93CDB7DEB7CA1BDB0B0FB6F894DEBF32
:102A60000FBECDBF09942A88398848885F846E8458
:102A70007D848C849B84AA84B984C884DF80EE80A2
:102A8000FD800C811B81AA81B981CE0FD11D0FB6AB
:102A9000F894DEBF0FBECDBFED010895AA1BBB1B8E
:102AA00051E107C0AA1FBB1FA617B70710F0A61B4E
:102AB000B70B881F991F5A95A9F780959095BC016F
:102AC000CD010895A0E0B0E0E8E6F5E10C941F1513
:102AD000EC01A880B980CA80DB80A114B104C104D4
:102AE000D10441F484E2A82E89EDB82E8BE5C82EDE
:102AF00087E0D82EC601B5012DE133EF41E050E06B
:102B00000E947E1727EA31E440E050E00E945F1700
:102B10007B018C01C601B5012DE133EF41E050E0AE
:102B20000E947E17CA01B9012CEE34EF4FEF5FEF20
:102B30000E945F176E0D7F1D801F911F97FF04C0BD
:102B40006150704080409048688379838A839B837A
:102B50009B013F77C901CDB7DEB7EAE00C943B1586
:102B60000E94621508958EE391E00E946215089517
:102B7000A0E0B0E080933E0190933F01A09340011C
:102B8000B09341010895283008F027E03327DA0197
:102B9000990F311D87FD916000966105710539F42B
:102BA00032602E5F3D9330E32A95E1F708959F3F11
:102BB00030F080387105610509F03C5F3C5F3D9362
:102BC000913008F08068911DDF93CF931F930F938E
:102BD000FF92EF92192F987F9695E92F96959695EB
:102BE000E90FFF27E75CFB4F99273327EE24FF24EB
:102BF000A701E70105900894079428F4360FE71E13
:102C0000F81E491F511D660F771F881F991F0694D4
:102C1000A1F70590079428F4E70EF81E491F561FE8
:102C2000C11D770F881F991F661F0694A1F7059095
:102C3000079428F4F80E491F561FC71FD11D880F8F
:102C4000991F661F771F0694A1F70590079420F43B
:102C5000490F561FC71FD81F990F661F771F881F60
:102C60000694A9F784911095177041F0D695C795F1
:102C700057954795F794E7941A95C1F7EFEDF3E070
:102C800068941590159135916591959105907FE225
:102C90007395E118F10A430B560BC90BD009C0F725
:102CA000E10CF11E431F561FC91FD01D7EF4703367
:102CB00011F48A95E6CFE894015030F0080F0AF439
:102CC0000027021708F4202F2395022F7A3328F0CB
:102CD00079E37D932A95E9F710C07D932A9589F6CB
:102CE000069497956795379517951794E118F10A0B
:102CF000430B560BC90BD00998F023957E91739521
:102D00007A3308F070E37C932013B8F77E917061FA
:102D10007D9330F0839571E37D9370E32A95E1F71D
:102D20001124EF90FF900F911F91CF91DF91992780
:102D300087FD90950895FC01059061507040011049
:102D4000D8F7809590958E0F9F1F0895FC016150D4
:102D5000704001900110D8F7809590958E0F9F1FBD
:102D600008950F931F93CF93DF938C01EB018B8119
:102D700081FF1BC082FF0DC02E813F818C819D8110
:102D80002817390764F4E881F9810193F983E8830E
:102D900006C0E885F985802F0995892B31F48E814D
:102DA0009F8101969F838E8302C00FEF1FEFC801A2
:102DB000DF91CF911F910F910895AEE0B0E0E3EE67
:102DC000F6E10C9425150D891E8986E08C831A8303
:102DD00009838FEF9FE79E838D839E01275E3F4F80
:102DE000CE0101966F89788DA9010E947C0F2F81F9
:102DF0003885020F131FF80110822E96E4E00C9420
:102E00004115FA01AA27283051F1203181F1E894C7
:102E10006F936E7F6E5F7F4F8F4F9F4FAF4FB1E0CD
:102E20003ED0B4E03CD0670F781F891F9A1FA11DC8
:102E3000680F791F8A1F911DA11D6A0F711D811DC9
:102E4000911DA11D20D009F468943F912AE0269F8E
:102E500011243019305D3193DEF6CF010895462FED
:102E60004770405D4193B3E00FD0C9F7F6CF462FCE
:102E70004F70405D4A3318F0495D31FD4052419337
:102E800002D0A9F7EACFB4E0A695979587957795F4
:102E90006795BA95C9F700976105710508959B017B
:102EA000AC010A2E06945795479537952795BA9504
:102EB000C9F7620F731F841F951FA01D0895629F9D
:102EC000D001739FF001829FE00DF11D649FE00D22
:102ED000F11D929FF00D839FF00D749FF00D659F83
:102EE000F00D9927729FB00DE11DF91F639FB00D82
:102EF000E11DF91FBD01CF011124089597FB092E93
:102F000005260ED057FD04D014D00AD0001C38F48A
:102F100050954095309521953F4F4F4F5F4F089505
:102F2000F6F790958095709561957F4F8F4F9F4FE5
:102F30000895A1E21A2EAA1BBB1BFD010DC0AA1FFA
:102F4000BB1FEE1FFF1FA217B307E407F50720F012
:102F5000A21BB30BE40BF50B661F771F881F991F8D
:102F60001A9469F760957095809590959B01AC01D6
:0A2F7000BD01CF010895F894FFCFD2
:102F7A00533A2025303264204C3A2028256429000F
:102F8A00456C696F74205768616C616E006E3934E4
:102F9A0034363830300047616D65204F76657200EF
:102FAA0003020001E0E0E000E10000000008010087
:022FBA00000015
:00000001FF
